:100000000C9442050C9489050C9489050C94FA17FC
:100010000C9489050C9489050C9489050C94890528
:100020000C9489050C9489050C94B72A0C94892B9F
:100030000C943C250C9489050C9489050C94890535
:100040000C9489050C9489050C9489050C948905F8
:100050000C9489050C9495250C9489050C948905BC
:100060000C9489050C9489050C9489050C948905D8
:100070000C9489050C9489050C9489050C948905C8
:100080000C9489050C9489050C9489050C948905B8
:100090000C9489050C9489050C9489050C948905A8
:1000A0000C9489050C9489050C948905C00EC30E27
:1000B000E30EF40EFC0E070F5F0F5F0F5F0F4D0F87
:1000C000500F0A0F0D0F120F1F0F2C0F2F0F330F92
:1000D000400F2A1B2A1B5C1B5C1BA91BDD1CDD1CA3
:1000E000DD1CC71B5C1C6D1C6D1CCD1CDD1CDD1CD0
:1000F000D61C791D791D8B1D8B1D821D8B1D8B1DA3
:100100008B1D791D791D871D8B1D8B1D871DF62B62
:100110001D2C152D1D2C152D692C8C2C152DE32C2B
:10012000F22C35001E001F002000210022002300B9
:1001300029002B0014001A000800150017004B00BE
:10014000390004001600070009000A004E00E10013
:100150001D001B00060019000500AE000000E000B5
:10016000E2002C00E3000000240025002600270008
:100170002D002E004C001C0018000C001200130073
:100180002F002A000B000D000E000F00330034007A
:100190003000050011001000360037003800310033
:1001A000AE002C00E600E400E5000151280001004B
:1001B0003A003B003C003D003E003F0001000100D2
:1001C0000100010001000100010001000100010027
:1001D00001000100010001000100E1000100010037
:1001E000010001000100010000000100E200010027
:1001F000010000004000410042004300440045006F
:100200000100010001000100010001000100005C8B
:100210000100010001000100010052000100010085
:100220000100010001005000510001000100010027
:10023000010001004F000100010001000100010068
:1002400001000100010001000100010001000100A6
:100250000100010001000100010001000100010096
:100260000100010001000100010001000100010086
:100270000100010000000100010001000100000078
:100280000100010001000100010001000100010066
:100290000100010001000100010001000100010056
:1002A0000100010001000100010001000100010046
:1002B0000100010001000100010001000100010036
:1002C0000100010001000100010001000100010026
:1002D0000100010001000100010001000100010016
:1002E0000100010001000100010001000100010006
:1002F00001000100010001000100010001000100F6
:1003000000000100010001000100000001000100E7
:1003100001000100010001000100010001000100D5
:1003200001000100010001000100010001000100C5
:1003300001000100010001000100010001000100B5
:1003400001000100010001000100010001000100A5
:10035000010000000000000000002A2B280000001F
:100360000000000000000000000000000029000064
:1003700000002C1E3420212224342627252E362D41
:100380003738271E1F202122232425263333362EDB
:1003900037381F0405060708090A0B0C0D0E0F104D
:1003A0001112131415161718191A1B1C1D2F313092
:1003B000232D350405060708090A0B0C0D0E0F1036
:1003C0001112131415161718191A1B1C1D2F313072
:1003D000354C00000000000000000000000000009C
:1003E0000000000000007E0F00D4FFFFFFC70000E8
:1003F000007800AE00AF00DA0281FFD9F1DB20A463
:10040000A62EAF00A0C000A1C800AED580A81FD303
:1004100000408D1420000000000000003E5B4F5B98
:100420003E003E6B4F6B3E001C3E7C3E1C00183C69
:100430007E3C18001C577D571C001C5E7F5E1C0014
:1004400000183C180000FFE7C3E7FF00001824185D
:100450000000FFE7DBE7FF0030483A060E002629E0
:1004600079292600407F05050700407F05253F00CC
:100470005A3CE73C5A007F3E1C1C0800081C1C3EEE
:100480007F0014227F2214005F5F005F5F00060977
:100490007F017F00006689956A006060606060008F
:1004A00094A2FFA2940008047E04080010207E207D
:1004B000100008082A1C0800081C2A0808001E1042
:1004C000101010000C1E0C1E0C0030383E3830008E
:1004D000060E3E0E060000000000000000005F0057
:1004E0000000000700070000147F147F1400242A76
:1004F0007F2A1200231308646200364956205000F8
:10050000000807030000001C224100000041221CDB
:1005100000002A1C7F1C2A0008083E0808000080F2
:100520007030000008080808080000006060000043
:100530002010080402003E5149453E0000427F4021
:1005400000007249494946002141494D33001814C1
:10055000127F10002745454539003C4A4949310082
:1005600041211109070036494949360046494929C0
:100570001E000000140000000040340000000008CD
:100580001422410014141414140000412214080011
:100590000201590906003E415D594E007C121112BC
:1005A0007C007F49494936003E41414122007F415C
:1005B00041413E007F49494941007F090909010045
:1005C0003E41415173007F0808087F0000417F4190
:1005D00000002040413F01007F08142241007F407D
:1005E000404040007F021C027F007F0408107F0013
:1005F0003E4141413E007F09090906003E4151212B
:100600005E007F0919294600264949493200030145
:100610007F0103003F4040403F001F2040201F005B
:100620003F4038403F00631408146300030478041B
:1006300003006159494D4300007F414141000204DC
:1006400008102000004141417F0004020102040023
:100650004040404040000003070800002054547808
:1006600040007F284444380038444444280038443B
:1006700044287F0038545454180000087E090200B2
:1006800018A4A49C78007F080404780000447D40EE
:1006900000002040403D00007F1028440000004141
:1006A0007F4000007C04780478007C080404780013
:1006B000384444443800FC18242418001824241812
:1006C000FC007C080404080048545454240004042A
:1006D0003F4424003C4040207C001C2040201C0063
:1006E0003C4030403C004428102844004C909090FE
:1006F0007C004464544C4400000836410000000073
:1007000077000000004136080000020102040200E8
:100710003C2623263C00000000000000404040F042
:10072000F8F8FF38FFF8F83FF8F8FF38FFF8F8F06E
:1007300040404000000000000080C0C0C0800000B9
:10074000C0C08000000080C0C000C0C0000080C0E9
:10075000C00000000000C0C0C0C0C000C0C0000099
:100760000000000000000000000000000000000089
:100770000000000000000000000000000000000079
:100780000000000000000000000000000000000069
:100790000000000000C0F0F8FC3E1E060100000052
:1007A0007F4141417F007F4141417F000080C0E0A7
:1007B0007E5B4F5BFEC00000C000DCD7DEDEDED714
:1007C000DC00C0000000000000000000000000008D
:1007D000000000000000000000000000494949FF3F
:1007E000FFFFFFE0DFBFBF00BFBFDFE0FFFFFFFF96
:1007F00049494900000000001F3F6060E0BF1F0042
:100800007F7F071E381E077F7F007F7F0E1F3B7193
:100810006000000000007F7F0C0C0C007E7E007FDB
:100820007E0303007F7E03037E7E03037F7E000F33
:100830003E703C063C703E0F00327B49493F7E00D3
:100840007F7E0303001E3F69696F260000000000E1
:100850000000000000030F1F3F3C787060000000A4
:100860007F4141417F007F4141417F00307B7F7864
:1008700030202030787F3B0003000F7F0F0F0F7F69
:100880000F00030000000000000000000000000056
:10089000000000000000000000000000010101074E
:1008A0000F0F7F0F7F0F0F7E0F0F7F0F7F0F0F0731
:1008B0000101010000000000000000000001010033
:1008C0000000000000000000000000000000000028
:1008D0000000000000000000000000000000000018
:1008E0000000000000000000000000000000000008
:1008F00000000000000000000000000000000000F8
:1009000000000000000000000000000000000000E7
:1009100000000000000000000000000000000000D7
:1009200000000000000000000000000000000000C7
:1009300000000000000000000000000000000000B7
:1009400000000000000000000000000000000000A7
:100950000000000000000E03530070006C006900EE
:1009600063006500000016034A006100790057002B
:10097000680079004F006B006100790000000403FB
:10098000090409025B00030100A0FA090400000148
:100990000301010009211101000122400007058126
:1009A0000308000A090401000203000000092111E4
:1009B0000100012222000705820320000107050330
:1009C00003200001090402000103000000092111B5
:1009D0000100012232000705840320000A120110E1
:1009E00001000000081EEAF82801000102000106CB
:1009F00060FF0961A1010962150026FF00952075BD
:100A00000881020963150026FF00952075089102F0
:100A1000C005010980A101850319012AB70015014C
:100A200026B700950175108100C0050C0901A101D0
:100A3000850419012AA002150126A002950175104E
:100A40008100C005010906A101050719E029E71584
:100A50000025019508750181029501750881010540
:100A600007190029FF150026FF009506750881006B
:100A70000508190129059505750191029501750370
:100A80009101C00011241FBECFEFDAE0DEBFCDBF61
:100A900004B603FE27C08091ED049091EE04A0916E
:100AA000EF04B091F0048730904BA740B04BD1F4E5
:100AB0001092ED041092EE041092EF041092F004E4
:100AC00014BE84B7877F84BF0FB6F894A895809131
:100AD0006000886180936000109260000FBEE0E0CB
:100AE000F8E3099511E0A0E0B1E0EEE3F6E602C01C
:100AF00005900D92A03DB107D9F724E0A0EDB1E03B
:100B000001C01D92AD3EB207E1F70E947E270C9412
:100B10001D330C94000082E00895CF93DF930E9470
:100B20004D0C90E09093D1018093D0018091D4013D
:100B30009091D5010E9486252091080130910901EC
:100B40002817390708F0A8C06091D0017091D10131
:100B5000072E000C880B990B0E94602E20910A0131
:100B600030910B0140910C0150910D010E94B62D66
:100B700020E030E040E052E40E94EC2E9B01AC010A
:100B800060E070E080E092E40E94492D0E94282EEF
:100B90007093010160930001C0E0D0E080910201F8
:100BA00090910301C817D9074CF4609100016C0FB4
:100BB00041E081E00E9498122196F0CF8091D60109
:100BC000811103C0C0E2D0E057C02091D201309122
:100BD000D30180910401909105012817390719F07C
:100BE000C0E2D0E029C01092D3011092D2016091EE
:100BF000000170910101613271050CF044C041E0C7
:100C000081E00E949812809100019091010101966B
:100C10009093010180930001EACF609106017091E9
:100C20000701CE010E94792F892B29F441E06C2F16
:100C300081E00E949812219780910001909101011A
:100C40008C179D0754F38091D2019091D3010196A6
:100C50009093D3018093D20116C0609106017091E8
:100C60000701CE010E94792F892B29F441E06C2FD6
:100C700081E00E94981221978091000190910101DA
:100C80008C179D0754F380E00E9472120E946E251B
:100C90009093D5018093D4018091D1018F9380915D
:100CA000D0018F938DE291E09F938F9389EB92E037
:100CB0009F938F930E94F12F8091D0019091D10149
:100CC0000F900F900F900F900F900F90843691051A
:100CD00064F063E08EE00E94791160E080E391E0CF
:100CE0000E94561263E082E11DC08A30910564F0D3
:100CF00063E08FE00E94791160E080E391E00E9460
:100D0000561263E083E10EC018161906A4F463E0DE
:100D100080E10E94791160E080E391E00E94561228
:100D200063E084E10E94791160E089EB92E0DF9159
:100D3000CF910C945612DF91CF91089581E00895E0
:100D400081E008950C94A00608950C94A4061F93C6
:100D5000CF93DF9300D000D01F92CDB7DEB7498389
:100D60005A836B833091320289819A81311114C088
:100D7000662359F0222349F00E94B222182F682FCF
:100D800089819A810E945B2203C00E948622182FCB
:100D900069817A81812F04C00E94B22269817A819F
:100DA0000F900F900F900F900F90DF91CF911F91A8
:100DB0000C943110FC01262F408151816281738196
:100DC00084810C94A706CF93DF93EC0160E00E942E
:100DD000DA06BE01DF91CF910C94A506FF920F9326
:100DE0001F93CF93DF93E82FF0E0EE5AFC4FF4907F
:100DF000C82FC695C695C695D0E0FE01EE51FC4FB2
:100E00000491877010E0082E02C0159507950A948A
:100E1000E2F701701127FE01EE52FC4FC491D0E0C1
:100E200002C0D595C7958A95E2F7C170DD270115F7
:100E3000110519F081EE0E94591A209719F086EEDB
:100E40000E94591A8F2D0E94D31ACD2B19F086EECD
:100E50000E94A71A012B41F081EEDF91CF911F91E3
:100E60000F91FF900C94A71ADF91CF911F910F91D2
:100E7000FF900895EF92FF920F931F93CF93DF930C
:100E8000EC01162F0AE08881882309F455C08130CF
:100E900009F043C08981813041F47E0182E0E80E8F
:100EA000F11C8A810E94D31A09C0823049F47E0164
:100EB000E2E0EE0EF11C8A810E94591AE7012FC070
:100EC000833041F47E01F2E0EF0EF11C8A810E9432
:100ED000A71AF4CF843011F0219621C02A812296DE
:100EE00080E090E030E0205331092A30310558F499
:100EF000089FA001099F500D1124C901840F951F5F
:100F000021962881EFCF009751F0EFE9FFE031976C
:100F1000F1F700C000000197F6CF0E94EE0621967F
:100F2000812F882309F4AFCFEFE9FFE03197F1F784
:100F300000C000008150F5CFDF91CF911F910F913C
:100F4000FF90EF90089560E00C943A078F929F9283
:100F5000AF92BF92CF92DF92EF92FF920F931F93C7
:100F60006B017C0181E090E0A0E0B0E04C015D010C
:100F700004C0880C991CAA1CBB1C4A95D2F7AC0172
:100F8000BD0104C0440F551F661F771F2A95D2F775
:100F9000482959296A297B2904C0880F991FAA1F4B
:100FA000BB1F0A95D2F78A019B010C211D212E211E
:100FB0003F21401751076207730739F4BC01CD0187
:100FC0006C297D298E299F290AC080959095A0952E
:100FD000B095BC01CD016C217D218E219F211F91F7
:100FE0000F91FF90EF90DF90CF90BF90AF909F90C8
:100FF0008F9008950F93382F262F6091980270914B
:10100000990280919A0290919B02042F432F0E9493
:10101000A6070F910C9497210E94CE250E94EA23E7
:10102000811102C00E9491240C948B0A0E94C70C6B
:101030000C94870A08950E94671D0E941A082FEFDA
:1010400084E39CE0215080409040E1F700C0000024
:101050000C94BB250F931F93CF93DF93EC0161E0BA
:101060000E94DA068C018A81882319F0C8010E9447
:10107000790CBE01C8010E946F0E882379F1BE0170
:10108000C8010E94A206882349F1BE01C8010E943E
:10109000B514882319F1BE01C8010E9407158823E1
:1010A000E9F0BE01C8010E9432168823B9F08A8196
:1010B000882369F001158CE5180731F00F3D1C45B8
:1010C00031F40E9491240AC00E941B0807C0CE017F
:1010D000DF91CF911F910F910C949E0680E0DF91DC
:1010E000CF911F910F91089508950C94740881E099
:1010F00008950C947708CF93C82F0E9475088C2F01
:101100000E947908CF91089580E090E008950895B5
:10111000880F991FFC01EE50FC4F85919491089522
:10112000CF93DF930E9431100E94A209EC01811538
:10113000904508F043C0C11580E4D80708F0CBC043
:10114000C03ED10528F5C03CD10508F0B3C0C83A6F
:10115000D10578F4C53AD10508F0A4C0C130D10555
:1011600009F4ECC008F4E8C0C430D10508F0E6C0CA
:10117000E3C0CF3BD10508F0DFC0C85AD0E0CC0FA8
:10118000DD1FCA5CDE4F0990D881C02DD464D6C063
:10119000C11590E2D90750F4C11521E0D20708F03B
:1011A000CDC0C83ED10508F4C9C0C6C0C11580E392
:1011B000D80708F086C0CE019F707FC0C11595E5A5
:1011C000D90708F043C0C11524E5D20708F09AC03A
:1011D000C11582E5D80708F5C11591E5D90708F0D2
:1011E0007DC0CE0174E0969587957A95E1F783707E
:1011F0009C2F937021E030E002C0220F331F9A959C
:10120000E2F73C68382BCF70C695C69580E2C89F40
:10121000E0011124C22BD32B91C09E0123703327F0
:101220008C2F86958695C115D34508F05CC0C1E02A
:10123000D0E002C0CC0FDD1F2A95E2F720E2829FAA
:10124000C0011124C82BD92BDC6878C0C11529E551
:10125000D207A0F4C11588E5D80708F058C0C11519
:1012600096E5D90708F068C08C2F0E94360A8F7166
:10127000C82FD0E0DC2FCC27D06260C0C1152AE592
:10128000D20708F449C0CE0190568115904208F06B
:1012900053C08D2F8F710E94360ADD27D0628F7167
:1012A000D82B4CC0C55AD0E0CC59DE4FC881D0E015
:1012B000D06444C0CE01805C91090E948808EC0192
:1012C0003DC0CE019927D3FF03C0EC01D86C36C0D6
:1012D000EC01D06C33C0DF70D06A30C0DC2FCC277B
:1012E000C16FD06A2BC0C1E0D0E002C0CC0FDD1FBF
:1012F0002A95E2F720E2829FC0011124C82BD92B46
:10130000DA681CC0DC2FCC27C46FD06A17C0DC2F72
:10131000CC27C06FD06A12C08C2F8F700E94360A03
:1013200094E0D695C7959A95E1F7CF70D0E0DC2F81
:10133000CC27D069C82B02C0C0E0D0E0CE01DF913D
:10134000CF9108958238910569F1B0F48133910508
:1013500009F46DC048F48932910509F463C08A32FA
:10136000910509F469C008958533910509F455C0C4
:1013700089339105B9F00895833E910569F138F4F8
:10138000803E9105B1F0823E910509F10895863EB7
:101390009105A9F1873E9105B9F1843E910509F0C7
:1013A00064C023C02091DE0420FD4FC021FD4DC04C
:1013B00008958091DE0480FD44C08091DF0480FFA9
:1013C00044C08091DE0484FD42C083EE4DC0809114
:1013D000DE0482FF38C0F5CF8091DE0482FD33C089
:1013E0008091DF0480FD31C0ECCF8091DF0481FF6C
:1013F00032C08091DE0484FD2AC087EE35C0809122
:10140000DE0483FF26C0F5CF8091DE0483FD21C07A
:101410008091DF0481FD1FC0ECCF8091DE0485FD4B
:101420001CC01DC08091DE0485FD19C016C08091CE
:10143000DE0486FD16C017C08091DE0486FD13C051
:1014400010C089E311C082EE0FC080EE0DC080E0B5
:101450000BC086EE09C084EE07C089E205C085E3B3
:1014600003C08AE201C081E390E008959091DE0418
:1014700092FF0DC0282F2871283019F4877F8460CF
:1014800006C0282F2471243011F48B7F886093FFCD
:101490000DC0282F2871283119F4877E846106C079
:1014A000282F2471243111F48B7E88612091DF0470
:1014B00020FF0DC0382F3871383019F4877F8160D4
:1014C00006C0382F3171313011F48E7F886021FFD2
:1014D0000DC0282F2871283119F4877E816106C03C
:1014E000282F2171213111F48E7E886194FD877E31
:1014F0000895E82FF0E0E853FD4F808108950895A6
:1015000080EA8A95F1F7089508950C94840A0C9462
:10151000850A0C94840A0C94890AF894E82FE295C1
:10152000EF70F0E031A1282F2F7081E090E001C032
:10153000880F2A95EAF7982F9095932391A392A16B
:10154000892B82A37894089508950F931F93CF93C6
:10155000DF930E94F20B80910E0180910E018111A8
:1015600002C095E001C090E09093D30285E0891B12
:101570008093D20286E60E948D0A87E90E948D0A36
:1015800086EC0E948D0A84E30E948D0A85E30E9406
:101590008D0AC7E6D1E00EE611E089910E948D0A1E
:1015A0000C171D07D1F7EEEBF2E0A8ECB2E01192B8
:1015B0001D9282E0E83CF807D1F785E00E949C0B81
:1015C0000E940C08DF91CF911F910F910C94FC0B9E
:1015D0000E94D30B882309F18091D20290E08853B6
:1015E0009D4F0E940F0C811114C08091D7018F5F15
:1015F0008093D701863078F0E091D202F0E0E85392
:10160000FD4F80E090E01192019685309105D9F769
:1016100002C01092D7010C9416088091D30290E07A
:1016200088539D4F0E94340C0C94A40A8F929F9271
:10163000AF92BF92CF92DF92EF92FF920F931F93E0
:10164000CF93DF938EE6A82E81E0B82ECEEBD2E0CA
:1016500093E7E92E91E0F92E912C01E010E065016D
:10166000F5018081F894E82FE295EF70F0E021A178
:101670008F70A80102C0440F551F8A95E2F7CA0176
:10168000922F982B91A392A18095892382A378947D
:101690000E94800AE7E6F1E020E030E0812C4191F1
:1016A000A42FA295AF70B0E090968C9190E04F700F
:1016B00002C0959587954A95E2F780FD07C0802F77
:1016C000022E01C0880F0A94EAF701C080E0882A40
:1016D0002F5F3F4F2730310511F75FEFA51AB50A8D
:1016E000F60180810E948D0A8881881619F088820F
:1016F00081E001C080E0982A2196EA14FB0409F0F9
:10170000AECF6091D30270E068537D4F292D45E044
:101710008EEB92E00E949D0B0E94E80A892DDF91DA
:10172000CF911F910F91FF90EF90DF90CF90BF90DE
:10173000AF909F908F9008950895FF920F931F93FD
:10174000CF93DF938C01F62ED72FC42F222349F09D
:1017500081E08093DA010E946E259093D9018093F5
:10176000D8018091DA018823C1F08091D80190914D
:10177000D9010E948625069780F0EF2DFD2FD80114
:101780004C2F50E0CD01801B910B841795071CF462
:101790008D918193F7CF1092DA01DF91CF911F9154
:1017A0000F91FF9008958091DB01811112C080910B
:1017B000D80080618093D8008AE18A95F1F700C053
:1017C0008091D90080FD02C082E001C081E0809359
:1017D000DB0181E09091DB01913009F080E0089518
:1017E0000C94D30B0E94F00B80930E010E94D30B3C
:1017F00081110C94030C08950E94D30B811102C037
:101800000C94090C089561E070E08FE091E00C9475
:10181000A81761E070E08FE091E00C94B117CF93CE
:10182000DF93D82FC92F80E090E00E948A18892B7F
:10183000B9F4ED2FFC2F80E090E0DC01A252BE4F06
:101840002C912193019685309105B9F783EE91E0B3
:101850000E94DF0D0E944D0C8093DD0181E001C0EC
:1018600080E0DF91CF91089520E030E0FC014191CC
:10187000CF01F901E252FE4F40832F5F3F4F2530E9
:101880003105A1F783EE91E00E94D60D8091DD0134
:101890000C944A0C8093E60108958091E601089526
:1018A0009C013056211540E2340748F0305E211586
:1018B00040E1340720F0315C21153F4110F49927B5
:1018C00006C08F3F910519F010F080E090E09C0178
:1018D000245031092432310540F02752310981E08A
:1018E0002E30310518F080E0089581E008950C94C1
:1018F000500CCF92DF92EF92FF92CF93DF930E9432
:10190000770C8823E9F18091E4019091E50100973B
:1019100089F10E9486256091E601C62FD0E09C01E6
:1019200040E050E060EE7EE280E090E00E948D2F8B
:1019300030E0B9016C1B7D0B072E000C880B990B56
:101940000E94602E27EA39E747E45DE30E94EC2E0F
:101950006B017C01BE01DD0F880B990B0E94602E8C
:101960009B01AC01C701B6010E944A2D0E942F2E97
:101970006093E6010E946E259093E5018093E40157
:10198000DF91CF91FF90EF90DF90CF900895CF92AD
:10199000DF92EF92FF92CF93DF938091E4019091D9
:1019A000E5010E948625893E934060F16091E60141
:1019B000C62FD0E0662777276C1B7D0B072E000C07
:1019C000880B990B0E94602E27EA39E747E45DE314
:1019D0000E94EC2E6B017C01BE01DD0F880B990B80
:1019E0000E94602E9B01AC01C701B6010E944A2DE6
:1019F0000E942F2E6093E6010E946E259093E501D0
:101A00008093E401DF91CF91FF90EF90DF90CF9032
:101A1000089508950C94090D80910E01882309F40E
:101A200047C020911801A22FA295AF70B0E0919607
:101A30003C9191972F7081E090E0AC01022E01C0A3
:101A4000440F0A94EAF7542F5095352391963C930E
:101A5000919792963C919297432B92964C939297A2
:101A600040911701E42FE295EF70F0E031A14F7043
:101A7000042E01C0880F0A94EAF7982F90959323BB
:101A800091A392A1892B82A390968C9190E002C0A1
:101A9000959587952A95E2F7817020A130E002C0E4
:101AA000359527954A95E2F720FD09C090E008C0DA
:101AB00084EF8093180185EF80931701B2CF92E0F5
:101AC000892B8093EC0190910E0181E098279093EF
:101AD000E801891B8093E7010895CF93E091EC0121
:101AE0005E2F550F550F20911801E22FE295EF70F0
:101AF000F0E080A190E02F7002C0959587952A951F
:101B0000E2F78170992740911701E42FE295EF7079
:101B1000F0E020A130E04F7002C0359527954A953E
:101B2000E2F7F901E170FF2720FF02C0E2E0F0E0F8
:101B3000E82BF92BE52BE093EC01C091E801EF7065
:101B4000F0E0E858FE4F90818091EB01890F80937F
:101B5000EB0182306CF0EC2F0C2E000CFF0BE751E8
:101B6000FE4F80818F5F808360E08C2F0E940A0D82
:101B70008091EB018F3F6CF4EC2F0C2E000CFF0BCF
:101B8000E751FE4F80818150808361E08C2F0E945D
:101B90000A0D8091EB01082E000C990B62E070E0B9
:101BA0000E94792F8093EB01CF910895E091E80195
:101BB000F0E0E751FE4F2081FC0120830895FF9261
:101BC0000F931F93CF93DF93D091E7010D2F10E078
:101BD00007511E4FFC01C081F8018081C81BFC2EFB
:101BE0001F1454F4FA94F80180818F5F808360E0C1
:101BF0008D2F0E940A0DF4CF8C2FC7FD80E0C81BEB
:101C0000CC2351F0CF5FF80180818150808361E067
:101C10008D2F0E940A0DF4CFDF91CF911F910F916C
:101C2000FF90089582E290E00E94A432813281F414
:101C300083E290E00E94A432823051F484E290E08A
:101C40000E94A43291E0813009F090E0892F01C018
:101C500080E081700895CF93C82F811102C06FEF8B
:101C600001C061E282E290E00E94B232C11102C082
:101C70006FEF01C062E083E290E00E94B232C111D6
:101C800002C06FEF01C061E084E290E0CF910C945C
:101C9000B23280E00E942B0E0C94E423089585E27A
:101CA00090E00E94A432682F70E080E090E00895F8
:101CB00085E290E00C94B2320E944E0E0E94120E09
:101CC00081110CC060E070E0CB010E94580E0E94B0
:101CD000AC0F0E948B1081E00C942B0E0895CF93D3
:101CE000FB01C281CC23E9F09C0122513F45203108
:101CF000310520F482510E949B100CC08031FFE519
:101D00009F0751F481E00E94BD2143E062E081E041
:101D10000E94FA07C0E018C081319F45A9F482E013
:101D2000F2CF8031EFE59E0711F481E004C08131EC
:101D30009F4549F482E00E94DE2143E062E081E0B9
:101D40000E94FA0701C0C1E08C2FCF9108952FEFB8
:101D5000FC0120830895EF92FF920F931F93CF937E
:101D6000DF93EC01162FE8818E2F90E0FC01319774
:101D7000E331F10508F0A3C0EA5AFF4F0C94AC2FF1
:101D8000198289E04DC08981823039F0833061F059
:101D9000813029F50E947A2502C00E944F0E9A8355
:101DA0008B837C836D838DC07E0122E0E20EF11C6B
:101DB00000E0802F0E94790AF70181937F010F5F75
:101DC0000A30B9F77EC08981823049F46A817B810B
:101DD0008C819D810E94B22F0E94580E72C0612F8B
:101DE000CE010E94A70E6DC04B816A8189810E943D
:101DF0007E0F9C838D8365C02C813D8132272327F4
:101E000032274B816A8189810E94970F5AC00E94B4
:101E1000AC0F57C00E943E1024C00E94401099830E
:101E20008A834FC06B8170E089819A81AE014C5FDB
:101E30005F4F9827892798270E94431042C06B81E3
:101E400070E089819A81AE014C5F5F4F98278927A6
:101E500098270E94681035C00E948B1032C00E94E3
:101E60006B0F89832EC06B8170E089819A81AE01EE
:101E70004C5F5F4F9827892798270E94EB0F21C05E
:101E80006B8170E089819A81AE014C5F5F4F98272A
:101E9000892798270E940F1014C00E94490E11C074
:101EA000CE010E946E26FFEF21EE84E0F15020402B
:101EB0008040E1F700C000000E94BB2502C08FEF08
:101EC0008883612FCE01DF91CF911F910F91FF90F9
:101ED000EF900C946E2684E0089550E0440F551F57
:101EE0002EE0629F400D511D11249A016CE8869FDF
:101EF000200D311D1124C901869608950F931F935B
:101F0000CF93DF930E946D0F8C010E94A432C82FE3
:101F1000D0E0DC2FCC27C80101960E94A4329E019C
:101F2000282BC901DF91CF911F910F9108950F9335
:101F30001F93CF93DF93122F032F0E946D0FEC019D
:101F4000602F0E94B232612FCE010196DF91CF91B6
:101F50001F910F910C94B232AF92BF92CF92DF9249
:101F6000EF92FF920F931F93CF93DF93A12CE12C5D
:101F7000F12CB12C00E010E0C0E0D0E06701C00E11
:101F8000D11EFE01EE0FFF1FEC0DFD1DEE5DFE4F9D
:101F9000259134914C2F6B2D8A2D0E94970F2196FD
:101FA000C730D10571F7025F1F4FB3948AE0B812B2
:101FB000E3CF8CE8E80EF11CA39484E0A812D9CFFB
:101FC000DF91CF911F910F91FF90EF90DF90CF9015
:101FD000BF90AF900895EF92FF920F931F93CF930E
:101FE000DF93EA017A01E60EF71E8C01C80186969E
:101FF000CE15DF0569F0003322E0120720F40E94BD
:10200000A432888301C0188221960F5F1F4FEECF44
:10201000DF91CF911F910F91FF90EF900895EF9274
:10202000FF920F931F93CF93DF93EA017A01E60E9D
:10203000F71E8C01C8018696CE15DF0559F00033D6
:1020400022E0120718F468810E94B23221960F5FD5
:102050001F4FF0CFDF91CF911F910F91FF90EF9025
:102060000895462F843038F47A3028F4673018F415
:10207000672F0C947E0F80E090E0089580E1089532
:102080008AEA91E00895EF92FF920F931F93CF9306
:10209000DF93EA017A01E60EF71E8C01C8018A5A25
:1020A0009D4FCE15DF0569F00A3A21E0120720F4B2
:1020B0000E94A432888301C0188221960F5F1F4FAF
:1020C000EDCFDF91CF911F910F91FF90EF90089589
:1020D000EF92FF920F931F93CF93DF93EA017A0160
:1020E000E60EF71E8C01C8018A5A9D4FCE15DF05FA
:1020F00059F00A3A21E0120718F468810E94B232BE
:1021000021960F5F1F4FEFCFDF91CF911F910F915E
:10211000FF90EF900895CF93DF93C6E5D2E060E0A3
:10212000CE010E94B2322196C11584E0D807B9F7DA
:10213000DF91CF910895DF92EF92FF920F931F935B
:10214000CF93DF9300D000D0CDB7DEB7F82E8FE06D
:102150008F15E8F18FEF93E00E94A432811137C010
:1021600006E512E0FF2069F0011584E0180779F117
:10217000C8010E94A432811101C0FA940F5F1F4F61
:10218000F1CF19821A821B821C82DD24D39478013C
:102190008FEFE81AF80AC8010E94A43289831A82D4
:1021A0008823A9F09FEF980F933058F48A83D9823F
:1021B0000E5F1F4FC7010E94A4328B83882339F022
:1021C0007801CE0101960E94A3078701E0CF0F900E
:1021D0000F900F900F90DF91CF911F910F91FF9073
:1021E000EF90DF900895EF92FF920F931F93CF939C
:1021F000DF93EC017B0164E670E088E70E946916DA
:102200008C01EC0EFD1ECE15DF0561F017FD0AC036
:10221000FE01849164E670E00E94C0168C01219654
:10222000892B89F30E944417C801DF91CF911F9138
:102230000F91FF90EF900895E4EDF2E080E092E0DE
:10224000DF019C011D9221503040E1F7F093D90449
:10225000E093D8048FEF9FEF9093190280931802B8
:1022600008950E948B058093140280FD02C080E8CF
:1022700001C080E2809313020E9463166DE070E05B
:1022800089E094E00E94F310892B11F080E008951A
:102290008091140263E070E081FD03C086E094E069
:1022A00002C083E094E00E94F310892B79F76DE07F
:1022B00070E086EF93E00E94F310892B39F70E94BB
:1022C0007A25DC01CB0180529C46AB4FBF4F8093F7
:1022D000D4049093D504A093D604B093D7040E945D
:1022E0001C1181E080931702809316021092150250
:1022F00008952091130236E0839FC0011124629F4C
:10230000800D911D1124811522E0920714F080E0C8
:1023100090E08C529D4F9093D9048093D8040895F7
:102320002091D8043091D9042E5C324040911302A0
:10233000642F70E0C9010E94652F481B463010F4DD
:10234000240F311D211582E0380710F020E030E025
:102350002C523D4F3093D9042093D8040895CF9345
:10236000DF938A3011F481E003C08D3029F480E0DE
:10237000DF91CF910C942512C62F682F8091D8043D
:102380009091D90426E0FC01ADEEB1E001900D92F0
:102390002A95E1F7603E30F026E0FC0111922A9583
:1023A000E9F70AC0F6E06F9FB00111246A5E7B4F27
:1023B00046E050E00E94DB2FC11135C0C091D80427
:1023C000D091D90446E050E0BE018DEE91E00E942C
:1023D000E42F892BB1F1C45DD2409E0185E0369592
:1023E00027958A95E1F781E090E0AC0102C0440FA7
:1023F000551F2A95E2F72091180230911902242BDB
:10240000352B259645E0D695C7954A95E1F702C04C
:10241000880F991FCA95E2F7822B932B909319028C
:10242000809318020EC0E091D804F091D9049F0166
:102430002A5F3F4F2E173F0709F2808180958193D5
:10244000F9CFDF91CF910C949011CF93E82F209189
:10245000D8043091D904245D324040911302642F96
:1024600070E0C9010E94652F481B842FEE2359F0AC
:1024700066E00E94592FC82FC150B0F060E080E2A2
:102480000E94AF11F9CFA901480F511D41155240CB
:1024900018F080E020E030E0280F311D2C523D4F35
:1024A0003093D9042093D804CF910895FF920F93CD
:1024B0001F93CF93DF93EC01F62EFC0101900020D7
:1024C000E9F78F0101501109C017D10728F46F2DCA
:1024D00089910E94AF11F8CFDF91CF911F910F9199
:1024E000FF90089520E030E0F9018823B1F0EC522C
:1024F000FD4F4FE750E09181919341505109D9F739
:1025000020583F4F211592E0390771F78FEF9FEF69
:1025100090931902809318020895ED5AFC4F9291FE
:102520009183AF01445D524042175307C1F7E8CF92
:10253000309113028317C8F590E0262F2695269533
:102540002695239F800D911D1124811522E092076D
:1025500064F5FC01EC52FD4F5081677021E030E0E2
:1025600001C0220F6A95EAF7442311F0252B02C01F
:10257000209525232517C9F0208325E0969587957A
:102580002A95E1F721E030E0A90102C0440F551F70
:102590008A95E2F7CA012091180230911902822B24
:1025A000932B90931902809318020895809117023B
:1025B0008823F9F00E947A25DC01CB0180529C46E9
:1025C000AB4FBF4F8093D4049093D504A093D6040F
:1025D000B093D7048091160281110BC062E070E0C5
:1025E00084EF93E00E94F310892B19F481E080932B
:1025F00016028091160208956F927F928F929F9299
:10260000AF92BF92CF92DF92EF92FF920F931F9300
:10261000CF93DF9380911702882309F4DCC02091C7
:102620001802309119022115310509F4D4C08091A6
:1026300015028111D0C061E070E0082F10E03B016D
:10264000082E02C0660C771C0A94E2F7A901462105
:102650005721452B11F48F5FF0CF90911402980110
:1026600065E0220F331F6A95E1F790FD12C0829555
:10267000880F807680931B01220F232F221F330B9C
:10268000319520931E01815E80931C0110921F01E1
:1026900012C045E0369527954A95E1F7220F220FA3
:1026A000220F20931B0110921E01295F20931C0111
:1026B00083E080931F0124E630E047E050E069E1C9
:1026C00071E088E70E94F016892B09F084C08091A0
:1026D000140280FD23C0A80195E0440F551F9A9570
:1026E000E1F74C525D4F04E610E020E230E060E498
:1026F00088E70E941717892B09F06DC00E94D61237
:10270000E301C095D0958091180290911902C823D9
:10271000D923D0931902C09318025DC080E2E3EF81
:10272000F1E0DF011D928A95E9F785E0000F111FA6
:102730008A95E1F7ACE8B1E048E851E09924939438
:102740002D91EA018991AE01B801680F711D6C529B
:102750007D4F30E02D503E4FF90197E07F01E21AA6
:10276000F30AA92C01C0AA0CEA94EAF77B01B12C68
:10277000E70189917E018A21892E8B18D82DD77087
:10278000CD2E0D2E000CDD08C82F01C0CC0FDA9520
:10279000EAF7D194C194D108D7E0CD22DD2401C05D
:1027A0008695CA94EAF78C2BD0808D298083B394C8
:1027B00088E0B812DDCF915031969F3F79F6C1E0A5
:1027C000A039BC0709F0BCCF04E610E020E230E0FD
:1027D00043EF51E08CCFDF91CF911F910F91FF908C
:1027E000EF90DF90CF90BF90AF909F908F907F90B1
:1027F0006F9008958091170290911602882389F0B6
:10280000992369F062E070E082EF93E00E94F31098
:10281000892B19F08091160208951092160290915A
:10282000160281E0892708950F931F938091170264
:10283000882329F160E080E00E9479110E948D05D3
:102840000E94FC12809116028823C9F00E947A250A
:102850000091D4041091D5042091D6043091D7046E
:10286000DC01CB01801B910BA20BB30B8F3F9F4F61
:10287000AF4FBF4720F41F910F910C94FA131F9193
:102880000F9108950F931F93CF93DF93C42FD22FEF
:10289000FC0182818823C9F040931C020E946E25AE
:1028A00090931B0280931A0280E28C0F883008F00C
:1028B00057C0C77081E001C0880FCA95EAF7DF9161
:1028C000CF911F910F910C94E61A80911C0248132E
:1028D00030C080911A0290911B020E948625843696
:1028E000910538F510E21D0FCD17B9F080E28C0F7D
:1028F000883040F4C77081E001C0880FCA95EAF7BC
:102900000E94ED1A183028F581E09D2F977001C0C4
:10291000880F9A95EAF70E94E61A802F0E94D31A30
:102920001830F0F4D77081E001C0880FDA95EAF72B
:102930000AC080E28C0F883098F4C77081E001C033
:10294000880FCA95EAF7DF91CF911F910F910C94F0
:10295000ED1A802FDF91CF911F910F910C94D31A14
:10296000DF91CF911F910F9108950F939C01CB019F
:10297000243F4CE5340731F188F4293DFCE53F075D
:10298000D9F02A3D4CE5340779F1283D3C45A9F5BD
:1029900006E221EE41EE68ED7CE52BC0263FFCE52A
:1029A0003F07E1F0A8F0273F3C4539F507E225EE67
:1029B00046EE67EF7CE51DC007E225EE45EE69EDCA
:1029C0007CE517C006E221EE40EE64EF7CE511C025
:1029D00007E225EE44EE65EF7CE50BC006E221EE52
:1029E00042EE66EF7CE505C008E221E045EE6AEDC7
:1029F0007CE50E94421480E008C0FC0182818823AB
:102A000019F010921C0201C081E00F910895CF933C
:102A1000DF93EC01FB018281882309F41FC1C230DE
:102A2000FCE5DF0708F41BC1C6319CE5D90738F087
:102A30009E012B5F3C452930310508F010C10E94F2
:102A4000FD239093DF048093DE04C031ECE5DE07C4
:102A500009F4C3C008F041C0C8308CE5D80709F4B8
:102A60009AC0F0F4C430ECE5DE0709F487C068F4DE
:102A7000C2308CE5D80709F477C0C330DC4509F0D3
:102A8000E3C08091DE04826076C0C630ECE5DE07EC
:102A900009F46EC008F07BC08091DE0488606BC0D2
:102AA000CC308CE5D80709F485C068F4CA30ECE571
:102AB000DE0709F474C008F079C00E94671D809198
:102AC000DE04806858C0CE308CE5D80709F476C0A3
:102AD00008F07FC08091DE048BC0CC3FECE5DE07C0
:102AE00009F44FC018F5C3318CE5D80709F47DC04F
:102AF00078F4C131ECE5DE0709F473C0C231DC457E
:102B000009F0A2C00E94671D8091DE048F7733C058
:102B1000C5318CE5D80709F472C008F486C0CB3FF4
:102B2000DC4509F091C08091DF043EC0C115FDE590
:102B3000DF0709F45FC058F4CE3F9CE5D90709F4DC
:102B400044C008F43FC08091DF0482602DC0C230D1
:102B5000FDE5DF0709F475C008F45DC0C330DD454D
:102B600009F072C080E06EC08091DE04816003C015
:102B70008091DE0480618093DE0466C08091DE0473
:102B800011C08091DF0482608093DF045DC080917A
:102B9000DE048062F0CF8091DE048064ECCF80910F
:102BA000DE0488608460E7CF8160EECF8091DE0430
:102BB0008E7FE1CF8091DE048D7FDDCF8091DE04BA
:102BC000877FD9CF8091DF0418C08091DF048D7F8B
:102BD000DBCF8091DE048F7ECECF8091DE048F7DAF
:102BE000CACF8091DE048F7BC6CF8091DE04877FC1
:102BF0008B7FC1CF8091DF048D7F8E7FC5CF809189
:102C0000DE0482FB222720F991E0922790FB82F9D3
:102C100090FB83F9B0CF8091DF04982F909591704D
:102C20008E7F892B90FB81F9AFCF0E94671D809129
:102C3000DE0487FB222720F991E0922790FB87F999
:102C40009ACF81E00E9493248091DE049091DF046A
:102C50000E940E240E94671D80E001C081E0DF9188
:102C6000CF910895CF93DF9386319C4541F5EB01D9
:102C70000E943323982F8A812091200130912101D5
:102C8000882379F09A7A81E009F480E080931D022C
:102C9000911102C069E201C065E3C9010E94DA2412
:102CA0000AC080911D02811102C069E201C065E382
:102CB000C9010E94DC240E94812380E001C081E0E0
:102CC000DF91CF9108951092B9008CE08093B80005
:102CD0000895EF92FF920F931F93CF93DF93182FD6
:102CE000EB011092BC0084EA8093BC000E946E2528
:102CF0007C018091BC0087FD0EC0CF3F8FEFD807CD
:102D0000C1F30E946E258E199F098C179D0788F3C9
:102D10008EEF9FEF2EC08091B900887F883041F000
:102D20008091B900887F803119F08FEF9FEF21C02B
:102D30001093BB0084E88093BC000E946E258C0138
:102D40008091BC0087FD0CC0CF3F8FEFD807C1F347
:102D50000E946E25801B910B8C179D0788F3D8CF9E
:102D60008091B900887F883111F08034F1F680E0DD
:102D700090E0DF91CF911F910F91FF90EF90089518
:102D80000F931F93CF93DF93EB018093BB0084E8F5
:102D90008093BC000E946E258C018091BC0087FD51
:102DA0000EC0CF3F8FEFD807C1F30E946E25801B66
:102DB000910B8C179D0788F38EEF9FEF0CC020912D
:102DC000B900287F81E090E0283211F480E090E0A3
:102DD000919581959109DF91CF911F910F91089560
:102DE000CF92DF92EF92FF920F931F93CF93DF93D7
:102DF0006B018A017901B9010E946916E6010C0D87
:102E00001D1DC017D10761F424E92093BC00DF9198
:102E1000CF911F910F91FF90EF90DF90CF90089589
:102E200097FDF2CFB70189910E94C016EACFCF92E9
:102E3000DF92EF92FF920F931F93CF93DF93C62FF2
:102E40006A017901B8010E94691697FD11C0B801A5
:102E50008C2F0E94C016E601EC0CFD1CCE15DF0580
:102E600039F097FD05C0B80189910E94C016F6CFD0
:102E700024E92093BC00DF91CF911F910F91FF9027
:102E8000EF90DF90CF90089584E98093BC0008957F
:102E90008EE14A9B02C08150E1F74A9BFECF089524
:102EA0005A9880E28A95F1F75A9A0895FC012AE02F
:102EB0002A95F1F790E020E080E031E0261779F0E4
:102EC00040E14A95F1F7880F4A9B02C08160932741
:102ED00000C0000040E14A95F1F72F5FEFCF20E1FD
:102EE0002A95F1F729B100C0000030E13A95F1F7D9
:102EF00022FB222720F992272081920F90830895A8
:102F0000EF92FF920F931F93CF93DF931F92CDB752
:102F1000DEB719828C017C01E60EF11C0E151F052F
:102F200059F00E94481768E0CE0101960E9456179A
:102F3000F80181938F01F2CF81E09981911180E0B6
:102F40000F90DF91CF911F910F91FF90EF90089517
:102F50009093200280931F0260931E02529A5A9A05
:102F600008959093200280931F0260931E0252984E
:102F70005A9AEA9AE9E6F0E080818F7C808308958E
:102F8000615091E001C0990F6A95EAF720E031E0C5
:102F9000992361F0492F482319F05A9A232701C039
:102FA0005A9840E24A95F1F79695F2CF222311F014
:102FB0005A9A01C05A9880E28A95F1F75A98089572
:102FC000FF920F931F93CF93DF93EC018C01060FB9
:102FD000111DC017D10741F0F9900E94501768E009
:102FE0008F2D0E94C017F5CFDF91CF911F910F91C8
:102FF000FF9008951F920F920FB60F9211240F9316
:103000001F932F933F934F935F936F937F938F9370
:103010009F93AF93BF93EF93FF93CF93DF931F9251
:10302000CDB7DEB719820E94481767E0CE0101963E
:103030000E945617382F369536953695932F9695CC
:103040009570232F2570920F292F237096959695B2
:103050008770920F891348C08981811145C0809182
:103060001E02831708F440C080E18A95F1F75A9A4E
:10307000529AA2E0AA95F1F700C000911F021091A8
:103080002002B8E03B9F000D111D11245A98F80151
:103090006581662321F0868197810E94E0170E9456
:1030A0005017F0E1FA95F1F75A9852985A9A80E140
:1030B0008A95F1F7D80112966C911297662369F000
:1030C00013968D919C9114970E948017D801ED91D1
:1030D000FC91811105C082E004C0D801ED91FC9102
:1030E00088E080830E9448170F90DF91CF91FF9175
:1030F000EF91BF91AF919F918F917F916F915F9170
:103100004F913F912F911F910F910F900FBE0F90F4
:103110001F9018950F931F93CF93DF9320911E025A
:1031200030E0281739070CF471C09C0193E0220F9E
:10313000331F9A95E1F7C0911F02D0912002C20F70
:10314000D31FF894529A5A9845E04A95F1F7000037
:10315000982F969595708570890F982F9370869506
:103160008695890F8901082B0E94501784E08A9563
:10317000F1F700C067E0802F0E94C01740E14A9538
:10318000F1F752985A9A4A9902C000C0FCCF87E0E2
:1031900090E04A9B0EC0019751F4529A5A9AE881E6
:1031A000F98181E08083789481E090E031C000C0B3
:1031B000F0CF6D81662381F08E819F810E94801700
:1031C00081110AC0529A5A9AE881F98182E080837B
:1031D000789482E090E01CC00E94481780E28A95B3
:1031E000F1F75A98529A40E14A95F1F76A816623BD
:1031F00021F08B819C810E94E0170E945017E8818A
:10320000F9811082789480E090E002C084E090E040
:10321000DF91CF911F910F91089590932602809393
:1032200025020895E0912502F0912602309721F0C1
:103230000190F081E02D099480E00895E09125024D
:10324000F0912602309721F00280F381E02D09945D
:10325000089520912302309124022817390771F034
:103260009093240280932302E0912502F09126029C
:10327000309721F00680F781E02D09940895209180
:103280002102309122022817390771F0909322020F
:1032900080932102E0912502F0912602309721F0DF
:1032A0000084F185E02D0994089585B7806885BF75
:1032B00085B7806885BF08950C94D30B08950C944E
:1032C0005E190C945E190C9461190C945E190C949F
:1032D00065190C945E190E9455190E9469190C9485
:1032E00067190E9465250E94A50A0E945C0E80E075
:1032F0000E9431110E94E2250E940C0D0C9463196A
:103300009F92AF92BF92CF92DF92EF92FF920F9374
:103310001F93CF93DF93CDB7DEB72A970FB6F894FC
:10332000DEBF0FBECDBF0E945F190E945E190E94D2
:10333000160BC82E0E945C19811111C08FEF898372
:103340008A831B820E946E258160782F9D838C83E7
:1033500049815A816B818D810E94251A40C088E283
:10336000A82E82E0B82E00E010E0902E802F0E9460
:10337000790AE82EF501D1905F01D82631F40F5F6C
:103380001F4F0A30110589F7D9CF8091AD0281FD19
:103390000E947F0A80E0FF24F3949D2D9F21D1F0AD
:1033A0008E839F82EF2081E009F480E088870E946D
:1033B0006E258160782F9A8789874E815F81688525
:1033C0008A850E94251AF801E85DFD4F8081F82664
:1033D000F08205C08F5FFF0C8730F9F6D0CF0E94D6
:1033E0006D0D0E941414C1100E94D6120E94121971
:1033F000909127028917B9F00E9412198093270231
:103400002A960FB6F894DEBF0FBECDBFDF91CF91E5
:103410001F910F91FF90EF90DF90CF90BF90AF90F2
:103420009F900C947B082A960FB6F894DEBF0FBECF
:10343000CDBFDF91CF911F910F91FF90EF90DF9063
:10344000CF90BF90AF909F900895CF93DF93CDB76B
:10345000DEB72B970FB6F894DEBF0FBECDBF4F83FC
:10346000588769877A878B87DE01119686E0FD0190
:1034700011928A95E9F785E0FE01379601900D9249
:103480008A95E1F749815A816B817C818D819E818A
:103490000E9420202B960FB6F894DEBF0FBECDBF42
:1034A000DF91CF910895FC01808191810E94F422E7
:1034B0000895CF93882309F448C0C82F8CEF8C0F50
:1034C000813AD0F46C2F80912001909121010E94CB
:1034D000A424882349F06C2F809120019091210130
:1034E0000E94DC240E9481236C2F80912001909106
:1034F00021010E94DA240CC080E28C0F883058F43D
:10350000C77081E001C0880FCA95EAF70E94362390
:10351000CF910C948123EBE5EC0FE33040F4F0E025
:10352000E254FE4F808190E0CF910C942919C85A43
:10353000C73158F4EC2FF0E0EE0FFF1FE057FE4FBD
:1035400080819181CF910C943F19CF910895882368
:1035500049F1682F8CEF860F813A38F48091200171
:10356000909121010E94DC240CC080E2860F8830FB
:1035700050F4677081E001C0880F6A95EAF70E94F5
:103580003C230C9481238BE5860F833020F480E06C
:1035900090E00C942919685A673120F480E090E09B
:1035A0000C943F190895CF93C82F0E94591AC9331C
:1035B00049F42FEF87EE93E0215080409040E1F7EF
:1035C00000C000008C2FCF910C94A71A882321F003
:1035D0000E9436230C9481230895882321F00E94B1
:1035E0003C230C9481230895CF92DF92EF92FF92B7
:1035F0000F931F93CF93DF937C01062FC72FFC01FE
:10360000158112951F70D281D1110E9453230E94FF
:103610002C23882399F0DD2389F08C2F807F803440
:1036200021F080E2800F883048F082E00E94CB23B6
:103630000E942C2391E0D82ED92601C0D12CCC2E6B
:10364000C2948FE0C8228C2D90E0FC01E759FF4F17
:103650000C94AC2F8C2F807FCF70882311F0C295F3
:10366000C07FDD2399F0CC2309F482C180E2800F72
:10367000883010F0011104C08C2F0E94362303C043
:103680008C2F0E9446230E94812372C1802F0E94AA
:10369000A71ACC2309F491C180E2800F883010F082
:1036A000011104C08C2F0E943C2303C08C2F0E9468
:1036B0004C230E94812381C18C2F807FCF70803268
:1036C00011F0C295C07F002319F00130C9F022C06B
:1036D000DD2371F0112341F0113031F40E94662393
:1036E0008C2B0E946E2369C10E9466238C2B1DC007
:1036F000112319F0113009F460C10E94772325C00D
:10370000DD2321F0163008F058C10EC0153008F046
:1037100054C11BC0DD2361F0112331F0F701858115
:1037200080FF26C18F7085838C2F0E94E61A45C1C9
:10373000112359F0093309F02CC1FFEF27EE83E084
:10374000F15020408040E1F722C18C2F0E94ED1AF9
:1037500034C18C2F86958695837019F0813061F085
:103760002CC1DD2321F0802F9C2F937002C080E0BC
:1037700090E00E94291929C1DD2321F0802F9C2F80
:10378000937002C080E090E00E943F191EC18C2F10
:10379000837009F045C0D11114C1402F4295469560
:1037A0004770440F440F602F6F70862F90E0A0E0A9
:1037B000B0E0042E04C0880F991FAA1FBB1F0A94F3
:1037C000D2F704FF10C00FE010E020E030E004C0AA
:1037D000000F111F221F331F4A95D2F70095109535
:1037E0002095309503C000E010E09801C695C6957D
:1037F000C370BC01CD01602B712B822B932BC23087
:1038000049F058F4C13019F00E947121DAC00E94C9
:103810005F21D7C00E948321D4C00E945D21D1C006
:10382000DD2319F08C2F817001C08695882309F45F
:10383000C8C0402F429546954770440F440F602FF3
:103840006F70862F90E0A0E0B0E0042E04C0880FD7
:10385000991FAA1FBB1F0A94D2F704FF10C00FE0E4
:1038600010E020E030E004C0000F111F221F331FC2
:103870004A95D2F7009510952095309503C000E049
:1038800010E09801C695C695C370BC01CD01602BB0
:10389000712B822B932BC23049F058F4C13019F0B0
:1038A0000E9436228EC00E9424228BC00E94482291
:1038B00088C00E94972185C0CF70DD2339F08C2FFE
:1038C0000E94BD21802F0E94E61A7BC0802F0E949B
:1038D000ED1A8C2F0E94DE2174C0023F01F128F402
:1038E000003F41F0013FA1F03FC0033FF9F0043F2A
:1038F00039F13AC0DD2341F0153008F05EC08C2F5D
:103900008F710E94032259C0163008F056C0F7CFBD
:10391000DD2339F08C2F8F710E94BD214EC0DD2335
:10392000C9F38C2F8F710E94DE2147C0DD2329F05F
:103930008C2F8F710E94A82140C00E94A3213DC0FE
:10394000DD2349F0CF718C2F0E94BD2163E08C2FC5
:103950000E94B62332C081E00E94CB23123068F16E
:1039600082E00E94CB2329C0DD2331F0112391F2A4
:10397000802F0E94591A21C0112399F2093349F46A
:103980009FEFE7EEF3E09150E040F040E1F700C038
:103990000000802F0E94A71A10C04C2F4F70602F7C
:1039A000C7010E9484080E94CE200FC04C2F4F7088
:1039B000602FC7010E94870808C088EF8C0D8430F3
:1039C00020F40E9412190E947B08DD20C9F00E9499
:1039D000282380FD15C0F70112820E9422230E9435
:1039E000BD21C7010E94211D0E942223DF91CF919A
:1039F0001F910F91FF90EF90DF90CF900C94DE21FC
:103A0000DF91CF911F910F91FF90EF90DF90CF90BA
:103A100008950F931F93CF93DF93EC016881798111
:103A20008A810E94FF228C010E945A220E944B210F
:103A3000B801CE010E94F41ADF91CF911F910F912E
:103A40000895CF93DF93EC01988189812B813C818C
:103A5000232B31F08F3F31F481E09F3F19F403C0F5
:103A600081E001C080E080FD19C0CE010E942A08DB
:103A700081110CC00E942C23882381F08A81882325
:103A800069F082E0DF91CF910C94CB23CE010E94AC
:103A9000091DCE01DF91CF910C94E306DF91CF9108
:103AA00008950E9453230E9463230E94812380E093
:103AB00090E00E94291980E090E00C943F198091D9
:103AC0002001909121010E94DE240C94511D0E943E
:103AD00043230C945F1DE92FE295EF704E2F50E0C9
:103AE000FA013297EE30F105B0F4E758FF4F0C942D
:103AF000AC2F803F91F018F4883E68F40EC0843FEC
:103B000051F40BC0883E48F0813F29F406C093FB76
:103B1000882780F9089580E0089581E008950E9443
:103B2000F4220E946B1D0895CF93DF9300D000D044
:103B30001F92CDB7DEB70F900F900F900F900F90A0
:103B4000DF91CF910895CF93DF9300D000D000D0C4
:103B5000CDB7DEB726960FB6F894DEBF0FBECDBF49
:103B6000DF91CF9108951F93CF93DF93C0913302DC
:103B700016E080913402C81799F0D0E01C9FF00144
:103B80001D9FF00D1124EB5CFD4F4081518162813E
:103B90007381848195810E94A31D2196C770E9CF0E
:103BA000DF91CF911F910895409165025091660277
:103BB00060916702709168028091690290916A0237
:103BC0000C94A31D0F931F93CF93DF9380916A02F0
:103BD00082958F7009F05DC080916702882309F497
:103BE00058C0809133021091340260916502709147
:103BF0006602C0916802D091690291E06F3F09F0BE
:103C000090E0292F06E0811709F443C0209721F0A6
:103C10007F3F21F030E003C031E001C0322F90E05F
:103C200030FD34C0089FF001099FF00D1124DF0121
:103C3000AB5CBD4F11963C911197371327C03C9157
:103C4000361324C012963C91129731111FC013965F
:103C50004D915C9114974C1B5D0B44365105B0F4AB
:103C600080916A028F70806180936A02E65CFD4FEA
:103C700080818F708061808385E692E00E94211DA3
:103C8000DF91CF911F910F910C94B31D0196877016
:103C9000BACFDF91CF911F910F9108959F92AF926C
:103CA000BF92CF92DF92EF92FF920F931F93CF9329
:103CB000DF93CDB7DEB761970FB6F894DEBF0FBEC6
:103CC000CDBF8C0185E0F801DE011D9601900D92BB
:103CD0008A95E1F7F80140815181E2809091650277
:103CE00060916602209168023091690221153105C8
:103CF00031F06F3F31F481E09F3F19F403C081E060
:103D000001C080E0F82FF1709F2E80FD46C1F801C0
:103D1000A380B48085E6C82E82E0D82EF09067029A
:103D2000F501E21BF30BFF2009F4DFC080916A026A
:103D3000E436F10508F09BC0282F207F09F052C01F
:103D4000561313C0491311C0FE2CE1100EC08F7022
:103D5000806180936A020E94D41DC6010E94211DC9
:103D600080916A02F801858358C1AB2831F05F3F2A
:103D700031F481E04F3F19F403C081E001C080E0DD
:103D800080FD03C081E08E2502C080E090E0F82F26
:103D9000F170FF2E80FF1CC080913302209134020D
:103DA00036E0821709F417C190E0389FF001399F7F
:103DB000F00D1124EB5CFD4F6181561306C060814C
:103DC000461303C06281E61203C001968770E9CFF3
:103DD000FE2CEE2009F421C180916A02816080935B
:103DE0006A025AC0561306C0491304C0E11002C04B
:103DF000F8019FC04D875E878D859E850E948F1D2F
:103E0000882379F1EE2069F120916A02822F829550
:103E10008F7090E0029774F0809165029091660235
:103E200098878F831986BB86AA862C87CE01079632
:103E30000E94211D86E0F801A5E6B2E001900D92F6
:103E40008A95E1F70E94E21D0E94D41D0DC056170D
:103E500029F14D875E878D859E850E948F1D81117A
:103E60002CC0C8010E94211DFF24F394D6C0282F26
:103E7000207F69F77A2DB98AA88A6E2D89890E94D8
:103E8000941D85E692E00E94211D86E0F6011192C4
:103E90008A95E9F70E94D41DF12CBFC04913D9CFF0
:103EA000E110D7CFF8018583C8010E94211D86E06B
:103EB000F60111928A95E9F7B0C0EE2091F22091B7
:103EC0006A02822F82958F7090E002970CF4B2CF35
:103ED00080916502909166029A8389831B82BD82DC
:103EE000AC822E83CE010196A3CFE436F10508F013
:103EF00047C0FE2CEE2009F4B4CF561330C049134E
:103F00002EC020916A0220FD21C0822F82958F70E1
:103F1000482F50E041155105C9F0F80125834F3075
:103F2000510541F08F5F982F9295907F822F8F706F
:103F3000892B8583C8010E94211D86E0F801A5E632
:103F4000B2E001900D928A95E1F742C086E0F80157
:103F5000A5E6B2E001900D928A95E1F75EC04D872B
:103F60005E878D859E850E948F1D811163CF809114
:103F70006A02816080936A02C8010E94211D4DC0BF
:103F80007A2DB98AA88A6E2D89890E94941D86E0AF
:103F9000F60111928A95E9F71BC0EE2009F461CF72
:103FA0004D875E878D859E850E948F1DF82E882304
:103FB00009F457CF86E0F801A5E6B2E001900D9232
:103FC0008A95E1F785E692E00E94531A0E94E21D6D
:103FD0000E94D41D22C04D875E878D859E850E94DC
:103FE000F422292F22952F70223028F49F7039F067
:103FF000811105C00BC0243028F49F7049F4805E05
:10400000883020F0C8010E94211D9F2CF92C05C08A
:10401000F8019581907F99F7F9CF8F2D61960FB6B2
:10402000F894DEBF0FBECDBFDF91CF911F910F91EE
:10403000FF90EF90DF90CF90BF90AF909F9008954A
:104040001F93CF93DF93CDB7DEB72C970FB6F894BD
:10405000DEBF0FBECDBF4F83588769877A878B87B6
:104060009C87CE0107960E944E1E8823D1F09F8127
:1040700088852A853B85232B31F08F3F31F481E001
:104080009F3F19F403C081E001C080E080FD47C07C
:104090004F81588569857A858B859C850E94A31DF3
:1040A0003EC086E0FE013796DE01119601900D922A
:1040B0008A95E1F7FF81E8856A857B856115710541
:1040C00031F0EF3F31F481E0FF3F19F403C081E0AC
:1040D00001C080E080FD23C02091340230E0C9019E
:1040E0000196877099274091330250E08417950715
:1040F000F1F1F983EA837D836C8396E0929FD0018E
:10410000939FB00D1124AB5CBD4FFE013196019021
:104110000D929A95E1F7809334020E94B31D16E048
:104120008091330290913402891771F1189FC00178
:1041300011248B5C9D4F0E944E1E882329F1E09133
:1041400033021E9FF0011124EB5CFD4F4081518131
:1041500062817381848195810E94A31D80913302C5
:1041600090E001968770992780933302D9CF0E94FF
:10417000671D1092340210923302E5E6F2E086E009
:10418000DF011D928A95E9F72C960FB6F894DEBFF1
:104190000FBECDBFDF91CF911F910895EF92FF9297
:1041A0000F931F93CF93DF938C01892B09F46CC07D
:1041B000F12CEE24E394E8012196F80184918437F0
:1041C00040F4843008F051C0813081F0823019F120
:1041D0005BC0853709F444C0A8F19CE7980F90377D
:1041E00008F052C08F770E94A71A41C00E5F1F4F80
:1041F000FE01849190E2980F983050F48770FE2D64
:1042000001C0FF0F8A95EAF78F2F0E94562314C032
:104210000E94591A2DC00E5F1F4FFE01849190E23B
:10422000980F983060F48770FE2D01C0FF0F8A95BB
:10423000EAF78F2F0E945C230E94812319C00E94FD
:10424000A71A16C00E5F1F4FFE01C491CC2381F048
:104250008FE99FE00197F1F700C00000C150F6CF51
:104260000E5F1F4FFE01F49003C00E94591A8E0189
:104270008F2D882309F49FCFEFE9FFE03197F1F705
:1042800000C000008150F5CFDF91CF911F910F91B9
:10429000FF90EF900895089508950C944C210C948C
:1042A0004D210E944F2160939C0270939D02809348
:1042B0009E0290939F020C94511D0C9451210F93D8
:1042C0001F9300919C0210919D0220919E023091BB
:1042D0009F02602B712B822B932B1F910F910C94BB
:1042E00051210F931F9300919C0210919D022091E8
:1042F0009E0230919F0260237123822393231F919A
:104300000F910C9451210F931F9300919C021091D7
:104310009D0220919E0230919F0260277127822783
:1043200093271F910F910C9451210C944C210E94C2
:104330009521609398027093990280939A029093CA
:104340009B020C94511D60E070E0CB010C9497210E
:104350000F931F9341E050E060E070E08A019B0101
:1043600004C0000F111F221F331F8A95D2F7C90105
:10437000B8011F910F910C9497210F931F9341E067
:1043800050E060E070E004C0440F551F661F771FC7
:104390008A95D2F78091980290919902A0919A0201
:1043A000B0919B028A019B01082B192B2A2B3B2BD6
:1043B000C901B8011F910F910C9497210F931F937E
:1043C00041E050E060E070E004C0440F551F661FFC
:1043D000771F8A95D2F7409550956095709580919A
:1043E000980290919902A0919A02B0919B028A0141
:1043F0009B01082319232A233B23C901B8011F91DC
:104400000F910C9497210F931F9341E050E060E0CF
:1044100070E004C0440F551F661F771F8A95D2F7BE
:104420008091980290919902A0919A02B0919B027A
:104430008A019B01082719272A273B27C901B801B0
:104440001F910F910C9497210F931F930091980245
:104450001091990220919A0230919B02602B712B4E
:10446000822B932B1F910F910C9497210F931F93E5
:10447000009198021091990220919A0230919B022A
:1044800060237123822393231F910F910C94972112
:104490000F931F93009198021091990220919A0214
:1044A00030919B0260277127822793271F910F91DC
:1044B0000C949721089527E0929F800D1124E82FF6
:1044C000E695E695E695877051E001C0550F8A950F
:1044D000EAF785E0E89FF0011124E559FD4F20E05F
:1044E00030E070E04081CB01022E02C096958795A6
:1044F0000A94E2F78170819584278523842781932C
:104500002F5F3F4F2530310569F7089527E0929FCF
:10451000800D1124682F669566956695982F977083
:1045200085E0689FB001112440E050E080E0FB018D
:10453000E40FF51FE559FD4F208130E0092E02C040
:10454000369527950A94E2F721703327042E01C08F
:10455000220F0A94EAF7822B4F5F5F4F45305105D7
:1045600031F70895BF92CF92DF92EF92FF920F93AF
:104570001F93CF93DF938C01C0909802D090990243
:10458000E0909A02F0909B0280919C0290919D0293
:10459000A0919E02B0919F02C82AD92AEA2AFB2A3A
:1045A000CFE1D0E0D701C6010C2E04C0B695A79587
:1045B000979587950A94D2F780FD04C0219790F7CC
:1045C000B12C07C0BC2EB8018C2F0E949008019717
:1045D000A9F38B2DDF91CF911F910F91FF90EF9059
:1045E000DF90CF90BF900895CF93DF93EC010E94AE
:1045F000B222BE010E949008DF91CF9108951F93CF
:10460000CF93DF93EB0190913202992321F0CB01FC
:104610000E94F42213C0882349F0CB010E94B222E9
:10462000182F682FCE010E945B2204C0CB010E948C
:104630008622182FBE01812F0E949008DF91CF9112
:104640001F9108958091A00285958595859508957F
:104650008091A002877008959091A002977081E0E8
:1046600009F480E008958091AC0208959091AC0225
:10467000892B8093AC02089580959091AC02892398
:104680008093AC0208951092AC0208959091AB0211
:10469000892B8093AB02089580959091AB0289237A
:1046A0008093AB0208951092AB0208959091AA02F4
:1046B000892B8093AA02089580959091AA0289235C
:1046C0008093AA0208951092AA0208958091A102EF
:1046D000089508950C9469230C946A239091A10283
:1046E000981721F08093A1020C946C230895809177
:1046F000A102882329F01092A10280E00C946C237F
:104700000895E0912001F09121018091AC02808315
:10471000E0912001F091210190818091AB02892BE1
:104720008083E0912001F091210190818091AA0283
:10473000892B80838091A102882381F0E091200160
:10474000F09121019081892B8083809120019091AB
:1047500021010E94982481110E94772380912001D9
:10476000909121010C941E190C94692398E0899F63
:1047700090011124262B2093A0020E94BD2180913C
:10478000A0028595859585950C94B4231092A0027E
:1047900080E00C94B4232091A00280958223809322
:1047A000A002982F977079F430E0482F082E000C63
:1047B000550B2417350739F08595859585950E9409
:1047C000DE210C94C62308956FEF7FEF80E090E028
:1047D0000C94D03280E090E00E94AC3221E08C3E1C
:1047E0009E4F09F020E0822F089582E090E00C9423
:1047F000A43283E090E00C94A432CF9384E090E064
:104800000E94A432C82F81E290E00E94A4322C2F93
:1048100030E0A901582BCA01CF910895CF93C92F39
:10482000682F84E090E00E94B2326C2F81E290E029
:10483000CF910C94B232AB01BC018FE090E00C94AC
:10484000C432AB01BC0183E190E00C94C43260E05F
:1048500070E0CB010C94212460E070E0CB010E9459
:104860001B240C9427246CEE7EEF80E090E00E94E5
:10487000D03260E082E090E00E94B23260E083E0FB
:1048800090E00E94B23210929C0210929D0210920F
:104890009E0210929F0260E084E090E00E94B2329B
:1048A00060E081E290E00E94B23260E085E090E05A
:1048B0000E94B23260E086E090E00E94B2326FEF78
:1048C00087E090E00E94B23240E050E0BA0188E018
:1048D00090E00E94C43260E08DE090E00E94B2322D
:1048E00040E050E0BA0188E190E00E94C43260E00C
:1048F00087E190E00E94B23240E050E0BA018CE1E2
:1049000090E00E94C43260E080E290E00E94B23207
:1049100040E050E0BA0188E190E00E94C4320C947B
:104920002C240C943324682F8EE090E00C94B23247
:10493000FC01329697E080E0915029F021912223EA
:10494000D9F38F5FF9CF0895662349F0FC013296C1
:1049500008962191621729F0E817F907D1F780E04E
:10496000089581E008959C01FC0132969FEF80E05C
:104970004191461789F09F3F19F4411101C0982FCA
:104980008F5F8630A9F79F3F39F0F901E90FF11DDC
:1049900097FDFA956283089508959C012A5F3F4F21
:1049A000FC014281461301C01282019682179307CF
:1049B000B9F708950C94B3240C94CD24029626E004
:1049C000FC0111922A95E9F7089508950C94E524C5
:1049D0000C94E524CF930E94E8240E94160B0E94B9
:1049E000E624C0E08C2F0E94790A811104C0CF5FB9
:1049F000CA30C1F701C081E0CF9108950C94E5243D
:104A00000C94FE240E9400258091E404843049F136
:104A10001092AE0220E488E190E00FB6F894A895D9
:104A2000809360000FBE2093600080E00E947B08AE
:104A30000E94002583B7817F846083BF83B7816034
:104A400083BF7894889583B78E7F83BF0FB6F89421
:104A5000A89580916000886180936000109260004A
:104A60000FBE08950C94E5240E94671D0E94121940
:104A70000E947B080C9432251F920F920FB60F9262
:104A800011248F939F93AF93BF938091AE028111B6
:104A900013C08091DA049091DB04A091DC04B09102
:104AA000DD044196A11DB11D8093DA049093DB04CF
:104AB000A093DC04B093DD04BF91AF919F918F91DF
:104AC0000F900FBE0F901F90189582E084BD93E069
:104AD00095BD9AEF97BD80936E0008952FB7F89417
:104AE0008091DA049091DB04A091DC04B091DD04A4
:104AF0002FBF08952FB7F8946091DA047091DB040A
:104B00008091DC049091DD042FBF08959C014FB784
:104B1000F8948091DA049091DB04A091DC04B091C8
:104B2000DD044FBF821B930B089578941F920F9260
:104B30000FB60F9211248F939F93AF93BF938091E1
:104B4000DA049091DB04A091DC04B091DD040196BD
:104B5000A11DB11D8093DA049093DB04A093DC04C3
:104B6000B093DD04BF91AF919F918F910F900FBED5
:104B70000F901F90189587E797E79093010880930F
:104B800000089AE088E10FB6F894A8958093600039
:104B90000FBE90936000FFCF0C94490E0E94160B3D
:104BA0008FE39CE90197F1F700C000000E94160B0B
:104BB00080E00E94790A80FF04C00E94CC250C94FA
:104BC000BB2508950E94EA23811102C00E9491240E
:104BD0000E94F5238093AD020E94FD239093DF0491
:104BE0008093DE040E94F923682F70E080E090E05B
:104BF0000E945D21609198027091990280919A02C1
:104C000090919B020C9495218091B702089508958C
:104C1000CF93DF9300D01F92CDB7DEB79091E4041D
:104C2000943011F589837B836A839093E9008FEF39
:104C30009091E800815095FD06C095ED9A95F1F7A9
:104C400000008111F5CF8091E80085FF0DC040E0A4
:104C500050E063E070E0CE0101960E9460288091F0
:104C6000E8008E778093E8000F900F900F90DF910F
:104C7000CF910895BC0184E00C940826BC0183E028
:104C80000C940826CF93DF9321E02093E9002FEFC7
:104C90003091E800215035FD06C035ED3A95F1F729
:104CA00000002111F5CF2091E80025FF14C0EC0190
:104CB00040E050E068E070E00E9460288091E800E9
:104CC0008E778093E80088E0FE01AFEAB2E00190C1
:104CD0000D928A95E1F7DF91CF910895CF936032DD
:104CE00019F52091E4042430F9F4C091E900CF7063
:104CF0003091EC00232F217030FD20E8C22B22E000
:104D00002093E9002091E80020FF0BC040E050E034
:104D100060E270E00E9460288091E8008E778093C6
:104D2000E800CF70C093E900CF9108958091E3042B
:104D3000811109C00E943C2A0E94992A8091E200B8
:104D400084608093E20008951092E304089508952A
:104D500008950C94342542E061EC81E00E94B5296D
:104D600042E261EC84E00E94B52942E261EC82E01B
:104D70000E94B52942E260EC83E00C94B529809151
:104D8000E604833009F462C030F4813071F082307F
:104D900009F49BC008958A3009F487C08B3009F468
:104DA0006DC0893009F0A9C020C08091E504813A26
:104DB00009F0A3C08091E800877F8093E80080918C
:104DC000E9049091EA04892B21F468E08FEA92E0EB
:104DD00003C060E080E090E070E00E94F6288091DF
:104DE000E8008B778093E80008958091E504813294
:104DF00009F083C08091E9049091EA04009719F0CA
:104E0000029709F07AC08091E800877F8093E800DC
:104E10008091E80082FD05C08091E4048111F8CF03
:104E20006CC02091F3008091F20090E0922B0297E9
:104E300029F48091F1008B7F813021F48091F10081
:104E40008093B7028091E8008B7753C08091E5048E
:104E5000813A09F052C08091E9049091EA04892BCB
:104E600009F04BC08091E800877F8093E800809133
:104E7000E80080FFFCCF80912C0136C08091E504D2
:104E80008132D9F58091E9049091EA04892BA9F542
:104E90008091E800877F8093E8000E94EA29809152
:104EA000E70480932C010C94671D8091E504813206
:104EB00021F58091E800877F8093E8000E94EA292D
:104EC0008091E8048093B80208958091E504813AC6
:104ED000A1F48091E800877F8093E8008091E8004A
:104EE00080FFFCCF8091B8028093F1008091E800B0
:104EF0008E778093E8000C94EA2908951F93CF934E
:104F0000DF93CDB7DEB7A0970FB6F894DEBF0FBE24
:104F1000CDBF84B7877F84BF0FB6F894A8958091E2
:104F20006000886180936000109260000FBE90E086
:104F300080E80FB6F89480936100909361000FBEF3
:104F40000E946B190E943C2A0E94992A8091E200DB
:104F500084608093E20078940E942E2D0E94711943
:104F600082E291E00E940D1913E08091E404853003
:104F700069F40E9402258091E2048823B1F30E9423
:104F8000EA24882391F30E944A28EFCF0E948019D7
:104F90008091E404843009F51093E9008091E800E1
:104FA00082FF1BC08091E80085FF0AC040E050E00E
:104FB00060E270E0CE0101960E94AB2891E001C052
:104FC00090E08091E8008B778093E800992329F0A6
:104FD00060E2CE0101960E94AB0E0E945F190E9412
:104FE0005E19C3CF0C94F427292F332723303105C2
:104FF000C9F060F42130310581F02230310509F02B
:1050000041C08BE590E022E839E040C02132310513
:10501000E1F02232310531F135C082E190E02DED31
:1050200039E034C099278130910549F028F0029782
:1050300049F5E6E5F9E005C0EEE7F9E002C0E6E68D
:10504000F9E0849190E09F0121C063307105D0F4B4
:10505000660F771FFB01E653FE4F2081318189E007
:1050600090E014C06330710568F4FB01EE0FFF1F80
:10507000EC53FE4F20813181FB01EF53FE4F8081C5
:1050800090E004C080E090E020E030E0FA0131835D
:105090002083089580E189BD82E189BD09B400FEC5
:1050A000FDCF8091D8008F7D8093D8008091E00063
:1050B00082608093E0008091E00081FDFCCF089544
:1050C000CF92DF92EF92FF920F931F93CF93DF93D4
:1050D000EC018B017A010E94092A811133C0E1148D
:1050E000F10439F0F70180819181081B190BC80F79
:1050F000D91FC12CD12C0115110519F18091E8009F
:1051000085FD16C08091E8008E778093E800E11459
:10511000F10449F0F70180819181C80ED91ED18236
:10512000C08285E00FC00E94092A882321F30AC0AB
:1051300089918093F10001501109FFEFCF1ADF0A26
:10514000DACF80E0DF91CF911F910F91FF90EF9028
:10515000DF90CF900895CF92DF92EF92FF920F935E
:105160001F93CF93DF93EC018B017A010E94092AF0
:10517000811133C0E114F10439F0F701808191818C
:10518000081B190BC80FD91FC12CD12C01151105F3
:1051900019F18091E80085FD16C08091E8008B77B9
:1051A0008093E800E114F10449F0F70180819181D6
:1051B000C80ED91ED182C08285E00FC00E94092A84
:1051C000882321F30AC08091F100899301501109CD
:1051D000FFEFCF1ADF0ADACF80E0DF91CF911F9186
:1051E0000F91FF90EF90DF90CF9008952091EB0406
:1051F0003091EC042617370748F06115710539F432
:105200002091E8002E772093E80001C0B901FC014D
:1052100020E06115710579F18091E4048823F1F1B2
:105220008530F1F18091E80083FD3CC08091E80079
:1052300082FD2EC08091E80080FFEBCF2091F3002B
:105240008091F20090E0922B6115710551F0883049
:10525000910538F421912093F10061507109019674
:10526000F3CF21E0089709F020E08091E8008E77E5
:105270008093E800CECF2111CFCF0AC08091E40403
:10528000882361F0853061F08091E80083FD0AC0D9
:105290008091E80082FFF2CF80E0089582E00895D7
:1052A00083E0089581E008952091EB043091EC04AF
:1052B0002617370748F06115710539F42091E80089
:1052C0002E772093E80001C0B901FC0120E06115B0
:1052D000710591F18091E404882309F440C0853080
:1052E00009F43FC08091E80083FD3DC08091E80053
:1052F00082FD2FC08091E80080FFE9CF2091F3006C
:105300008091F20090E0922B6115710559F0883080
:10531000910540F424912093F10031966150710978
:105320000196F2CF21E0089709F020E08091E80093
:105330008E778093E800CBCF2111CCCF0AC080912B
:10534000E404882361F0853061F08091E80083FDFA
:105350000AC08091E80082FFF2CF80E0089582E0E9
:10536000089583E0089581E00895982F973068F5B7
:105370009093E900981739F07091EC002091ED00BE
:105380005091F00003C0242F762F50E021FD02C081
:105390009F5FECCF3091EB003E7F3093EB0030917C
:1053A000ED003D7F3093ED003091EB0031603093A4
:1053B000EB007093EC002093ED005093F0002091EF
:1053C000EE0027FDE5CF80E008958F708093E9001F
:1053D00081E008958091E50487FF11C08091E80085
:1053E00082FD05C08091E4048111F8CF11C0809145
:1053F000E8008B770BC08091E404882349F080910A
:10540000E80080FFF8CF8091E8008E778093E80075
:1054100008952091E4003091E50095E64091EC007C
:10542000842F817040FF23C08091E80080FD1DC063
:105430008091E404882399F0853099F08091EB0005
:1054400085FD11C04091E4005091E5002417350717
:1054500029F3915011F09A01E1CF84E0089582E0A0
:10546000089583E0089581E0089580E008954091D3
:10547000E80042FFDDCF08950E94AA2A0E94B22AC6
:10548000E0EEF0E0808181608083E8EDF0E08081F3
:105490008F77808319BCA7EDB0E08C918E7F8C93C1
:1054A00080818F7E80831092E30408950F931F9371
:1054B000CF93DF930E94AA2A0E94B22AC8EDD0E0BF
:1054C00088818F77888388818068888388818F7DB1
:1054D000888319BC1092E4041092E0041092E20454
:1054E0001092E10400EE10E0F80180818B7F808350
:1054F00088818160888342E060E080E00E94B52975
:10550000E1EEF0E080818E7F8083E2EEF0E080814A
:1055100081608083808188608083F80180818E7FB4
:105520008083888180618883DF91CF911F910F9163
:105530000895E8EDF0E080818F7E8083E7EDF0E074
:1055400080818160808384E082BF81E08093E30476
:105550000C94562AE8EDF0E080818E7F80831092D3
:10556000E20008951092DA001092E10008951F926F
:105570000F920FB60F9211242F933F934F935F9387
:105580006F937F938F939F93AF93BF93EF93FF930B
:105590008091E10082FF0BC08091E20082FF07C092
:1055A0008091E1008B7F8093E1000E942D2D8091FE
:1055B000DA0080FF1FC08091D80080FF1BC080915F
:1055C000DA008E7F8093DA008091D90080FF0DC0D1
:1055D00080E189BD82E189BD09B400FEFDCF81E093
:1055E0008093E4040E94962605C019BC1092E4043E
:1055F0000E94A4268091E10080FF19C08091E20002
:1056000080FF15C08091E2008E7F8093E200809140
:10561000E20080618093E2008091D80080628093F4
:10562000D80019BC85E08093E4040E94A8268091EC
:10563000E10084FF30C08091E20084FF2CC080E153
:1056400089BD82E189BD09B400FEFDCF8091D800FB
:105650008F7D8093D8008091E1008F7E8093E10060
:105660008091E2008F7E8093E2008091E200816071
:105670008093E2008091E004882311F084E007C069
:105680008091E30087FD02C081E001C083E0809348
:10569000E4040E94A9268091E10083FF29C0809143
:1056A000E20083FF25C08091E100877F8093E100C5
:1056B00082E08093E4041092E0048091E1008E7F08
:1056C0008093E1008091E2008E7F8093E2008091E0
:1056D000E20080618093E20042E060E080E00E94AE
:1056E000B5298091F00088608093F0000E94A72681
:1056F000FF91EF91BF91AF919F918F917F916F91AA
:105700005F914F913F912F910F900FBE0F901F907F
:1057100018951F920F920FB60F9211242F933F935B
:105720004F935F936F937F938F939F93AF93BF93A9
:10573000CF93DF93EF93FF93C091E900CF708091F7
:10574000EC00D82FD17080FDD0E81092E900809154
:10575000F000877F8093F00078940E94CD2B109208
:10576000E9008091F00088608093F000CD2BCF702D
:10577000C093E900FF91EF91DF91CF91BF91AF917D
:105780009F918F917F916F915F914F913F912F9159
:105790000F900FBE0F901F9018951F93CF93DF931C
:1057A000CDB7DEB7AA970FB6F894DEBF0FBECDBF58
:1057B000E5EEF4E08091F100819324E0ED3EF20704
:1057C000C9F70E94BF268091E80083FF2EC1809117
:1057D000E5049091E604492F50E04A30510508F065
:1057E00024C1FA01E957FF4F0C94AC2F803821F007
:1057F000823809F01AC108C08091E1049091E20456
:10580000992389F082600FC08091E9048F708730FE
:1058100008F00BC18093E9008091EB0085FB88279D
:1058200080F91092E9009091E800977F9093E8004A
:105830008093F1001092F100D1C0282F2D7F09F044
:10584000F4C0882319F0823061F0EFC08091E70442
:10585000813009F0EAC0933009F080E08093E204DF
:105860002EC08091E70481112AC08091E9048F70D5
:105870002FEF280F263008F0D8C08093E900209140
:10588000EB0020FF1CC0933021F48091EB0080627C
:1058900014C09091EB0090619093EB0021E030E018
:1058A000A90102C0440F551F8A95E2F74093EA0010
:1058B0001092EA008091EB0088608093EB001092D8
:1058C000E9008091E800877F8093E8000E94EA2940
:1058D000ACC08111AAC01091E7041F778091E3004A
:1058E0008078812B8093E3008091E800877F80930C
:1058F000E8000E94EA298091E80080FFFCCF8091B7
:10590000E30080688093E300111102C082E001C0CF
:1059100083E08093E40489C08058823008F085C019
:105920008091E7049091E8048C3D53E0950779F568
:1059300083E08A838AE289834FB7F894DE01139665
:1059400020E03EE051E2E32FF0E050935700E49175
:1059500020FF03C0E295EF703F5FEF708E2F90E065
:10596000EA3010F0C79601C0C0968D939D932F5FCB
:10597000243149F74FBF8091E800877F8093E8008A
:105980006AE270E0CE0101960E94F62816C060918E
:10599000E9047091EA04AE014F5F5F4F0E94F22765
:1059A000BC01892B09F441C09091E800977F909346
:1059B000E80089819A810E9454298091E8008B77C0
:1059C0008093E80032C0803881F58091E800877FBD
:1059D0008093E8008091E0048093F1008091E800DA
:1059E0008E7772CF811121C08091E7049091E804F5
:1059F00099270297D4F48091E800877F8093E8008C
:105A00008091E7048093E0040E94EA298091E004F9
:105A1000811106C08091E30087FD02C081E001C0D2
:105A200084E08093E4040E94AB268091E80083FF29
:105A30000AC08091E800877F8093E8008091EB00A6
:105A400080628093EB00AA960FB6F894DEBF0FBE7B
:105A5000CDBFDF91CF911F9108950895CF9380918D
:105A6000E4048823A1F0C091E900CF709091EC008C
:105A7000892F817090FD80E8C82B1092E9008091F9
:105A8000E80083FD0E94CD2BCF70C093E900CF9139
:105A900008955058BB27AA270E94612D0C94B22E5E
:105AA0000E94A42E38F00E94AB2E20F039F49F3FC4
:105AB00019F426F40C94A12E0EF4E095E7FB0C9457
:105AC0009B2EE92F0E94C32E58F3BA176207730763
:105AD0008407950720F079F4A6F50C94E52E0EF4D2
