:100000000C94A2020C94E9020C94E9020C940313E0
:100010000C94E9020C94E9020C94E9020C94E902B4
:100020000C94E9020C94E9020C94C0250C949226DD
:100030000C9445200C94E9020C94E9020C94E9021A
:100040000C94E9020C94E9020C94E9020C94E90284
:100050000C94E9020C949E200C94E9020C94E902A1
:100060000C94E9020C94E9020C94E9020C94E90264
:100070000C94E9020C94E9020C94E9020C94E90254
:100080000C94E9020C94E9020C94E9020C94E90244
:100090000C94E9020C94E9020C94E9020C94E90234
:1000A0000C94E9020C94E9020C94E9020D0B100B7C
:1000B000300B410B490B540BAC0BAC0BAC0B9A0B3C
:1000C0009D0B570B5A0B5F0B6C0B790B7C0B800B4A
:1000D0008D0B3316331665166516B216E617E6173E
:1000E000E617D016651776177617D617E617E617B0
:1000F000DF1782188218941894188B189418941883
:100100009418821882189018941894189018FF2642
:1001100026271E2826271E28722795271E28EC270B
:10012000FB2735001E001F002000210022002300B5
:1001300029002B0014001A000800150017004B00BE
:10014000390004001600070009000A004E00E10013
:100150001D001B00060019000500AE000000E000B5
:10016000E2002C00E3000000240025002600270008
:100170002D002E004C001C0018000C001200130073
:100180002F002A000B000D000E000F00330034007A
:100190003000050011001000360037003800310033
:1001A000AE002C00E600E400E5000151280001004B
:1001B0003A003B003C003D003E003F0001000100D2
:1001C0000100010001000100010001000100010027
:1001D00001000100010001000100E1000100010037
:1001E000010001000100010000000100E200010027
:1001F000010000004000410042004300440045006F
:100200000100010001000100010001000100005C8B
:100210000100010001000100010052000100010085
:100220000100010001005000510001000100010027
:10023000010001004F000100010001000100010068
:1002400001000100010001000100010001000100A6
:100250000100010001000100010001000100010096
:100260000100010001000100010001000100010086
:100270000100010000000100010001000100000078
:100280000100010001000100010001000100010066
:100290000100010001000100010001000100010056
:1002A0000100010001000100010001000100010046
:1002B0000100010001000100010001000100010036
:1002C0000100010001000100010001000100010026
:1002D0000100010001000100010001000100010016
:1002E0000100010001000100010001000100010006
:1002F00001000100010001000100010001000100F6
:1003000000000100010001000100000001000100E7
:1003100001000100010001000100010001000100D5
:1003200001000100010001000100010001000100C5
:1003300001000100010001000100010001000100B5
:1003400001000100010001000100010001000100A5
:10035000010000000000000000002A2B280000001F
:100360000000000000000000000000000029000064
:1003700000002C1E3420212224342627252E362D41
:100380003738271E1F202122232425263333362EDB
:1003900037381F0405060708090A0B0C0D0E0F104D
:1003A0001112131415161718191A1B1C1D2F313092
:1003B000232D350405060708090A0B0C0D0E0F1036
:1003C0001112131415161718191A1B1C1D2F313072
:1003D000354C00000000000000000000000000009C
:1003E0000000000000007E0F00D4FFFFFFC70000E8
:1003F000007800AE00AF00DA0281FFD9F1DB20A463
:10040000A62EAF00A0C000A1C800AED580A81FD303
:1004100000408D1420000E03530070006C00690032
:1004200063006500000016034A0061007900570070
:10043000680079004F006B00610079000000040340
:10044000090409025B00030100A0FA09040000018D
:10045000030101000921110100012240000705816B
:100460000308000A09040100020300000009211129
:100470000100012222000705820320000107050375
:1004800003200001090402000103000000092111FA
:100490000100012232000705840320000A12011026
:1004A00001000000081EEAF8280100010200010610
:1004B00060FF0961A1010962150026FF0095207502
:1004C0000881020963150026FF0095207508910236
:1004D000C005010980A101850319012AB700150192
:1004E00026B700950175108100C0050C0901A10116
:1004F000850419012AA002150126A0029501751094
:100500008100C005010906A101050719E029E715C9
:100510000025019508750181029501750881010585
:1005200007190029FF150026FF00950675088100B0
:1005300005081901290595057501910295017503B5
:100540009101C00011241FBECFEFDAE0DEBFCDBFA6
:1005500004B603FE27C08091C5049091C604A09103
:10056000C704B091C8048730904BA740B04BD1F47A
:100570001092C5041092C6041092C7041092C804C9
:1005800014BE84B7877F84BF0FB6F894A895809176
:100590006000886180936000109260000FBEE0E010
:1005A000F8E3099511E0A0E0B1E0E6E4F5E502C06A
:1005B00005900D92AA3BB107D9F724E0AAEBB1E070
:1005C00001C01D92A53CB207E1F70E9487220C945E
:1005D000A12A0C94000081E0089581E008950C9414
:1005E000ED0208950C94F1021F93CF93DF9300D096
:1005F00000D01F92CDB7DEB749835A836B83309109
:100600000F0289819A81311114C0662359F0222387
:1006100049F00E94BB1D182F682F89819A810E9482
:10062000641D03C00E948F1D182F69817A81812F5C
:1006300004C00E94BB1D69817A810F900F900F90BA
:100640000F900F90DF91CF911F910C947E0CFC01C5
:10065000262F408151816281738184810C94F40240
:10066000CF93DF93EC0160E00E942703BE01DF918E
:10067000CF910C94F202FF920F931F93CF93DF93CD
:10068000E82FF0E0EE5AFC4FF490C82FC695C695BF
:10069000C695D0E0FE01EE51FC4F0491877010E04A
:1006A000082E02C0159507950A94E2F701701127EC
:1006B000FE01EE52FC4FC491D0E002C0D595C79523
:1006C0008A95E2F7C170DD270115110519F081EE59
:1006D0000E946215209719F086EE0E9462158F2DF8
:1006E0000E94DC15CD2B19F086EE0E94B015012B6F
:1006F00041F081EEDF91CF911F910F91FF900C940B
:10070000B015DF91CF911F910F91FF900895EF9257
:10071000FF920F931F93CF93DF93EC01162F0AE004
:100720008881882309F455C0813009F043C089814C
:10073000813041F47E0182E0E80EF11C8A810E9442
:10074000DC1509C0823049F47E01E2E0EE0EF11CB6
:100750008A810E946215E7012FC0833041F47E0137
:10076000F2E0EF0EF11C8A810E94B015F4CF8430C4
:1007700011F0219621C02A81229680E090E030E09D
:10078000205331092A30310558F4089FA001099FF0
:10079000500D1124C901840F951F21962881EFCF98
:1007A000009751F0EFE9FFE03197F1F700C000004A
:1007B0000197F6CF0E943B032196812F882309F4ED
:1007C000AFCFEFE9FFE03197F1F700C000008150B3
:1007D000F5CFDF91CF911F910F91FF90EF9008958A
:1007E00060E00C9487038F929F92AF92BF92CF925A
:1007F000DF92EF92FF920F931F936B017C0181E0D8
:1008000090E0A0E0B0E04C015D0104C0880C991CB0
:10081000AA1CBB1C4A95D2F7AC01BD0104C0440F11
:10082000551F661F771F2A95D2F7482959296A292B
:100830007B2904C0880F991FAA1FBB1F0A95D2F7F6
:100840008A019B010C211D212E213F2140175107B8
:100850006207730739F4BC01CD016C297D298E290B
:100860009F290AC080959095A095B095BC01CD01B7
:100870006C217D218E219F211F910F91FF90EF9080
:10088000DF90CF90BF90AF909F908F9008950F937F
:10089000382F262F60917502709176028091770231
:1008A00090917802042F432F0E94F3030F910C9430
:1008B000A01C0E94D7200E94F31E811102C00E943A
:1008C0009A1F0C94D8060E9414090C94D40608951B
:1008D0000E9470180E9467042FEF84E39CE021506F
:1008E00080409040E1F700C000000C94C4200F93BA
:1008F0001F93CF93DF93EC0161E00E9427038C01EB
:100900008A81882319F0C8010E94C608BE01C80167
:100910000E94BC0A882379F1BE01C8010E94EF023F
:10092000882349F1BE01C8010E94BE0F882319F136
:10093000BE01C8010E9410108823E9F0BE01C80161
:100940000E943B118823B9F08A81882369F0011540
:100950008CE5180731F00F3D1C4531F40E949A1FB9
:100960000AC00E94680407C0CE01DF91CF911F9199
:100970000F910C94EB0280E0DF91CF911F910F91CA
:10098000089508950C94C10481E008950C94C40462
:10099000CF93C82F0E94C2048C2F0E94C604CF910F
:1009A000089580E090E008950895880F991FFC0154
:1009B000EE50FC4F859194910895CF93DF930E9460
:1009C0007E0C0E94EF05EC018115904508F043C0B4
:1009D000C11580E4D80708F0CBC0C03ED10528F58A
:1009E000C03CD10508F0B3C0C83AD10578F4C53A87
:1009F000D10508F0A4C0C130D10509F4ECC008F459
:100A0000E8C0C430D10508F0E6C0E3C0CF3BD10553
:100A100008F0DFC0C85AD0E0CC0FDD1FC15EDE4F4A
:100A20000990D881C02DD464D6C0C11590E2D907F1
:100A300050F4C11521E0D20708F0CDC0C83ED10561
:100A400008F4C9C0C6C0C11580E3D80708F086C045
:100A5000CE019F707FC0C11595E5D90708F043C04E
:100A6000C11524E5D20708F09AC0C11582E5D80760
:100A700008F5C11591E5D90708F07DC0CE0174E0F5
:100A8000969587957A95E1F783709C2F937021E076
:100A900030E002C0220F331F9A95E2F73C68382BF2
:100AA000CF70C695C69580E2C89FE0011124C22B85
:100AB000D32B91C09E01237033278C2F869586956A
:100AC000C115D34508F05CC0C1E0D0E002C0CC0F36
:100AD000DD1F2A95E2F720E2829FC0011124C82B76
:100AE000D92BDC6878C0C11529E5D207A0F4C1155F
:100AF00088E5D80708F058C0C11596E5D90708F071
:100B000068C08C2F0E9483068F71C82FD0E0DC2F25
:100B1000CC27D06260C0C1152AE5D20708F449C0CD
:100B2000CE0190568115904208F053C08D2F8F71E1
:100B30000E948306DD27D0628F71D82B4CC0C55A26
:100B4000D0E0C35BDE4FC881D0E0D06444C0CE01AA
:100B5000805C91090E94D504EC013DC0CE0199272B
:100B6000D3FF03C0EC01D86C36C0EC01D06C33C0AD
:100B7000DF70D06A30C0DC2FCC27C16FD06A2BC0A9
:100B8000C1E0D0E002C0CC0FDD1F2A95E2F720E2E1
:100B9000829FC0011124C82BD92BDA681CC0DC2F1E
:100BA000CC27C46FD06A17C0DC2FCC27C06FD06AA7
:100BB00012C08C2F8F700E94830694E0D695C79543
:100BC0009A95E1F7CF70D0E0DC2FCC27D069C82B05
:100BD00002C0C0E0D0E0CE01DF91CF91089582380D
:100BE000910569F1B0F48133910509F46DC048F4C1
:100BF0008932910509F463C08A32910509F469C00C
:100C000008958533910509F455C089339105B9F0EC
:100C10000895833E910569F138F4803E9105B1F065
:100C2000823E910509F10895863E9105A9F1873E1E
:100C30009105B9F1843E910509F064C023C020916B
:100C4000B60420FD4FC021FD4DC008958091B6042B
:100C500080FD44C08091B70480FF44C08091B604F9
:100C600084FD42C083EE4DC08091B60482FF38C03F
:100C7000F5CF8091B60482FD33C08091B70480FD2A
:100C800031C0ECCF8091B70481FF32C08091B604AF
:100C900084FD2AC087EE35C08091B60483FF26C04C
:100CA000F5CF8091B60483FD21C08091B70481FD0A
:100CB0001FC0ECCF8091B60485FD1CC01DC0809183
:100CC000B60485FD19C016C08091B60486FD16C015
:100CD00017C08091B60486FD13C010C089E311C00F
:100CE00082EE0FC080EE0DC080E00BC086EE09C022
:100CF00084EE07C089E205C085E303C08AE201C033
:100D000081E390E008959091B60492FF0DC0282FE2
:100D10002871283019F4877F846006C0282F247139
:100D2000243011F48B7F886093FF0DC0282F287129
:100D3000283119F4877E846106C0282F247124315C
:100D400011F48B7E88612091B70420FF0DC0382FED
:100D50003871383019F4877F816006C0382F3171BF
:100D6000313011F48E7F886021FF0DC0282F28714B
:100D7000283119F4877E816106C0282F2171213125
:100D800011F48E7E886194FD877E0895E82FF0E04F
:100D9000E056FD4F80810895089580EA8A95F1F725
:100DA000089508950C94D1060C94D2060C94D106A3
:100DB0000C94D606F894E82FE295EF70F0E031A19C
:100DC000282F2F7081E090E001C0880F2A95EAF764
:100DD000982F9095932391A392A1892B82A3789425
:100DE000089508950F931F93CF93DF930E943F08B8
:100DF0008091000180910001811102C095E001C045
:100E000090E09093AB0285E0891B8093AA0286E66E
:100E10000E94DA0687E90E94DA0686EC0E94DA066A
:100E200084E30E94DA0685E30E94DA06C0E5D1E099
:100E300007E511E089910E94DA060C171D07D1F72A
:100E4000E6E9F2E0A0EAB2E011921D9282E0E03A17
:100E5000F807D1F785E00E94E9070E945904DF9165
:100E6000CF911F910F910C9449080E94200888236C
:100E700009F18091AA0290E080569D4F0E945C0883
:100E8000811114C08091BA018F5F8093BA018630BE
:100E900078F0E091AA02F0E0E056FD4F80E090E0AB
:100EA0001192019685309105D9F702C01092BA01CE
:100EB0000C9463048091AB0290E080569D4F0E9499
:100EC00081080C94F1068F929F92AF92BF92CF92BD
:100ED000DF92EF92FF920F931F93CF93DF9387E5FB
:100EE000A82E81E0B82EC6E9D2E09CE5E92E91E07B
:100EF000F92E912C01E010E06501F5018081F89454
:100F0000E82FE295EF70F0E021A18F70A80102C0F8
:100F1000440F551F8A95E2F7CA01922F982B91A38F
:100F200092A18095892382A378940E94CD06E0E562
:100F3000F1E020E030E0812C4191A42FA295AF7028
:100F4000B0E090968C9190E04F7002C09595879597
:100F50004A95E2F780FD07C0802F022E01C0880F5E
:100F60000A94EAF701C080E0882A2F5F3F4F2730BC
:100F7000310511F75FEFA51AB50AF60180810E94CD
:100F8000DA068881881619F0888281E001C080E045
:100F9000982A2196EA14FB0409F0AECF6091AB02C7
:100FA00070E060567D4F292D45E086E992E00E9471
:100FB000EA070E943507892DDF91CF911F910F918C
:100FC000FF90EF90DF90CF90BF90AF909F908F9069
:100FD00008950895FF920F931F93CF93DF938C0191
:100FE000F62ED72FC42F222349F081E08093BD0134
:100FF0000E9477209093BC018093BB018091BD013A
:101000008823C1F08091BB019091BC010E948F2088
:10101000069780F0EF2DFD2FD8014C2F50E0CD0129
:10102000801B910B841795071CF48D918193F7CF4A
:101030001092BD01DF91CF911F910F91FF90089504
:101040008091BE01811112C08091D800806180938F
:10105000D8008AE18A95F1F700C08091D90080FD1F
:1010600002C082E001C081E08093BE0181E09091E6
:10107000BE01913009F080E008950C9420080E9490
:101080003D08809300010E94200881110C945008B3
:1010900008950E942008811102C00C9456080895FA
:1010A00061E070E081E091E00C94B11261E070E0E9
:1010B00081E091E00C94BA12CF93DF93D82FC92F1F
:1010C00080E090E00E949313892BB9F4ED2FFC2F60
:1010D00080E090E0DC01AF53BE4F2C91219301964C
:1010E00085309105B9F786EC91E00E942C0A0E94A8
:1010F0009A088093C00181E001C080E0DF91CF9128
:10110000089520E030E0FC014191CF01F901EF5357
:10111000FE4F40832F5F3F4F25303105A1F786EC0E
:1011200091E00E94230A8091C0010C94970880935B
:10113000C90108958091C90108959C013056211577
:1011400040E2340748F0305E211540E1340720F0DA
:10115000315C21153F4110F4992706C08F3F91055E
:1011600019F010F080E090E09C0124503109243205
:10117000310540F02752310981E02E30310518F059
:1011800080E0089581E008950C949D08CF92DF924D
:10119000EF92FF92CF93DF930E94C4088823E9F176
:1011A0008091C7019091C801009789F10E948F201A
:1011B0006091C901C62FD0E09C0140E050E060EE94
:1011C0007EE280E090E00E94112A30E0B9016C1BC1
:1011D0007D0B072E000C880B990B0E94F02827EA44
:1011E00039E747E45DE30E947C296B017C01BE0185
:1011F000DD0F880B990B0E94F0289B01AC01C70101
:10120000B6010E9453280E94BF286093C9010E9422
:1012100077209093C8018093C701DF91CF91FF9011
:10122000EF90DF90CF900895CF92DF92EF92FF92F0
:10123000CF93DF938091C7019091C8010E948F20C6
:10124000893E934060F16091C901C62FD0E06627C6
:1012500077276C1B7D0B072E000C880B990B0E94C7
:10126000F02827EA39E747E45DE30E947C296B0117
:101270007C01BE01DD0F880B990B0E94F0289B01B9
:10128000AC01C701B6010E9453280E94BF28609399
:10129000C9010E9477209093C8018093C701DF9114
:1012A000CF91FF90EF90DF90CF90089508950C9428
:1012B000560980910001882309F447C020910A0152
:1012C000A22FA295AF70B0E091963C9191972F70AC
:1012D00081E090E0AC01022E01C0440F0A94EAF7CD
:1012E000542F5095352391963C93919792963C912B
:1012F0009297432B92964C93929740910901E42F39
:10130000E295EF70F0E031A14F70042E01C0880F1C
:101310000A94EAF7982F9095932391A392A1892B91
:1013200082A390968C9190E002C0959587952A951E
:10133000E2F7817020A130E002C0359527954A95EB
:10134000E2F720FD09C090E008C084EF80930A0115
:1013500085EF80930901B2CF92E0892B8093CF0172
:101360009091000181E098279093CB01891B809395
:10137000CA010895CF93E091CF015E2F550F550F0D
:1013800020910A01E22FE295EF70F0E080A190E059
:101390002F7002C0959587952A95E2F7817099275D
:1013A00040910901E42FE295EF70F0E020A130E0D8
:1013B0004F7002C0359527954A95E2F7F901E17023
:1013C000FF2720FF02C0E2E0F0E0E82BF92BE52B3D
:1013D000E093CF01C091CB01EF70F0E0EF59FE4FE9
:1013E00090818091CE01890F8093CE0182306CF084
:1013F000EC2F0C2E000CFF0BE453FE4F80818F5F0F
:10140000808360E08C2F0E9457098091CE018F3F2E
:101410006CF4EC2F0C2E000CFF0BE453FE4F80817C
:101420008150808361E08C2F0E9457098091CE010A
:10143000082E000C990B62E070E00E94FD29809359
:10144000CE01CF910895E091CB01F0E0E453FE4F3F
:101450002081FC0120830895FF920F931F93CF9367
:10146000DF93D091CA010D2F10E004531E4FFC01F1
:10147000C081F8018081C81BFC2E1F1454F4FA941B
:10148000F80180818F5F808360E08D2F0E94570973
:10149000F4CF8C2FC7FD80E0C81BCC2351F0CF5F69
:1014A000F80180818150808361E08D2F0E9457096F
:1014B000F4CFDF91CF911F910F91FF90089582E2B9
:1014C00090E00E945F2A813281F483E290E00E94E2
:1014D0005F2A823051F484E290E00E945F2A91E01A
:1014E000813009F090E0892F01C080E0817008957B
:1014F000CF93C82F811102C06FEF01C061E282E279
:1015000090E00E946D2AC11102C06FEF01C062E03D
:1015100083E290E00E946D2AC11102C06FEF01C00A
:1015200061E084E290E0CF910C946D2A80E00E940B
:10153000780A0C94ED1E089585E290E00E945F2ADF
:10154000682F70E080E090E0089585E290E00C94D0
:101550006D2A0E949B0A0E945F0A81110CC060E004
:1015600070E0CB010E94A50A0E94F90B0E94D80CE2
:1015700081E00C94780A0895CF93FB01C281CC23BB
:10158000E9F09C0122513F452031310520F4825180
:101590000E94E80C0CC08031FFE59F0751F481E008
:1015A0000E94C61C43E062E081E00E944704C0E064
:1015B00018C081319F45A9F482E0F2CF8031EFE578
:1015C0009E0711F481E004C081319F4549F482E017
:1015D0000E94E71C43E062E081E00E94470401C0F2
:1015E000C1E08C2FCF9108952FEFFC012083089547
:1015F000EF92FF920F931F93CF93DF93EC01162F7F
:10160000E8818E2F90E0FC013197E331F10508F07D
:10161000A3C0EA5AFF4F0C94302A198289E04DC0CA
:101620008981823039F0833061F0813029F50E9460
:10163000832002C00E949C0A9A838B837C836D83E3
:101640008DC07E0122E0E20EF11C00E0802F0E949E
:10165000C606F70181937F010F5F0A30B9F77EC09C
:101660008981823049F46A817B818C819D810E94CD
:10167000362A0E94A50A72C0612FCE010E94F40A88
:101680006DC04B816A8189810E94CB0B9C838D83C5
:1016900065C02C813D813227232732274B816A8107
:1016A00089810E94E40B5AC00E94F90B57C00E9426
:1016B0008B0C24C00E948D0C99838A834FC06B8150
:1016C00070E089819A81AE014C5F5F4F982789272E
:1016D00098270E94900C42C06B8170E089819A81AA
:1016E000AE014C5F5F4F9827892798270E94B50C61
:1016F00035C00E94D80C32C00E94B80B89832EC01E
:101700006B8170E089819A81AE014C5F5F4F9827B1
:10171000892798270E94380C21C06B8170E089814D
:101720009A81AE014C5F5F4F9827892798270E94C6
:101730005C0C14C00E94960A11C0CE010E94772151
:10174000FFEF21EE84E0F15020408040E1F700C03F
:1017500000000E94C42002C08FEF8883612FCE0159
:10176000DF91CF911F910F91FF90EF900C94772113
:1017700084E0089550E0440F551F2EE0629F400D15
:10178000511D11249A016CE8869F200D311D1124F2
:10179000C901869608950F931F93CF93DF930E94FC
:1017A000BA0B8C010E945F2AC82FD0E0DC2FCC2717
:1017B000C80101960E945F2A9E01282BC901DF9172
:1017C000CF911F910F9108950F931F93CF93DF93A4
:1017D000122F032F0E94BA0BEC01602F0E946D2A7A
:1017E000612FCE010196DF91CF911F910F910C9443
:1017F0006D2AAF92BF92CF92DF92EF92FF920F933A
:101800001F93CF93DF93A12CE12CF12CB12C00E09E
:1018100010E0C0E0D0E06701C00ED11EFE01EE0F67
:10182000FF1FEC0DFD1DEE5DFE4F259134914C2FF9
:101830006B2D8A2D0E94E40B2196C730D10571F7DC
:10184000025F1F4FB3948AE0B812E3CF8CE8E80E32
:10185000F11CA39484E0A812D9CFDF91CF911F91FE
:101860000F91FF90EF90DF90CF90BF90AF900895D1
:10187000EF92FF920F931F93CF93DF93EA017A01C8
:10188000E60EF71E8C01C8018696CE15DF0569F0BD
:10189000003322E0120720F40E945F2A888301C0EF
:1018A000188221960F5F1F4FEECFDF91CF911F91CE
:1018B0000F91FF90EF900895EF92FF920F931F9377
:1018C000CF93DF93EA017A01E60EF71E8C01C8017F
:1018D0008696CE15DF0559F0003322E0120718F482
:1018E00068810E946D2A21960F5F1F4FF0CFDF9114
:1018F000CF911F910F91FF90EF900895462F843064
:1019000038F47A3028F4673018F4672F0C94CB0B36
:1019100080E090E0089580E108958AEA91E00895DA
:10192000EF92FF920F931F93CF93DF93EA017A0117
:10193000E60EF71E8C01C8018A5A9D4FCE15DF05B1
:1019400069F00A3A21E0120720F40E945F2A888396
:1019500001C0188221960F5F1F4FEDCFDF91CF910D
:101960001F910F91FF90EF900895EF92FF920F93C8
:101970001F93CF93DF93EA017A01E60EF71E8C01E5
:10198000C8018A5A9D4FCE15DF0559F00A3A21E069
:10199000120718F468810E946D2A21960F5F1F4F6D
:1019A000EFCFDF91CF911F910F91FF90EF900895AE
:1019B000CF93DF93C6E5D2E060E0CE010E946D2AAE
:1019C0002196C11584E0D807B9F7DF91CF9108952A
:1019D000DF92EF92FF920F931F93CF93DF9300D08C
:1019E00000D0CDB7DEB7F82E8FE08F15E8F18FEF7E
:1019F00093E00E945F2A811137C006E512E0FF20C4
:101A000069F0011584E0180779F1C8010E945F2A86
:101A1000811101C0FA940F5F1F4FF1CF19821A8212
:101A20001B821C82DD24D39478018FEFE81AF80A18
:101A3000C8010E945F2A89831A828823A9F09FEF38
:101A4000980F933058F48A83D9820E5F1F4FC701D5
:101A50000E945F2A8B83882339F07801CE0101969A
:101A60000E94F0038701E0CF0F900F900F900F902E
:101A7000DF91CF911F910F91FF90EF90DF9008952C
:101A8000EF92FF920F931F93CF93DF93EC017B01B3
:101A900064E670E088E70E9472118C01EC0EFD1E76
:101AA000CE15DF0561F017FD0AC0FE01849164E6E2
:101AB00070E00E94C9118C012196892B89F30E9444
:101AC0004D12C801DF91CF911F910F91FF90EF90C0
:101AD00008950895ECEAF2E080E092E0DF019C01D5
:101AE0001D9221503040E1F7F093B104E093B0042F
:101AF0008FEF9FEF9093F6018093F50108950E9478
:101B0000690D8093F10180FD02C080E801C080E290
:101B10008093F0010E946C116DE070E089E094E028
:101B20000E94400D892B11F080E008958091F10111
:101B300063E070E081FD03C086E094E002C083E0D2
:101B400094E00E94400D892B79F76DE070E086EFFC
:101B500093E00E94400D892B39F70E948320DC011D
:101B6000CB01805A9541AF4FBF4F8093AC04909307
:101B7000AD04A093AE04B093AF040E946A0D81E05F
:101B80008093F4018093F3011092F2010895209163
:101B9000F00136E0839FC0011124629F800D911DEA
:101BA0001124811522E0920714F080E090E0845522
:101BB0009D4F9093B1048093B00408958091F401F7
:101BC0008823F9F00E948320DC01CB01805A9541E3
:101BD000AF4FBF4F8093AC049093AD04A093AE047D
:101BE000B093AF048091F30181110BC062E070E00B
:101BF00084EF93E00E94400D892B19F481E08093DB
:101C0000F3018091F30108956F927F928F929F92DA
:101C1000AF92BF92CF92DF92EF92FF920F931F93FA
:101C2000CF93DF938091F401882309F4DCC02091E5
:101C3000F5013091F6012115310509F4D4C08091E8
:101C4000F2018111D0C061E070E0082F10E03B018B
:101C5000082E02C0660C771C0A94E2F7A9014621FF
:101C60005721452B11F48F5FF0CF9091F10198012E
:101C700065E0220F331F6A95E1F790FD12C082954F
:101C8000880F807680930D01220F232F221F330BA4
:101C9000319520931001815E80930E011092110105
:101CA00012C045E0369527954A95E1F7220F220F9D
:101CB000220F20930D0110921001295F20930E0135
:101CC00083E08093110124E630E047E050E06BE0D0
:101CD00071E088E70E94F911892B09F084C0809196
:101CE000F10180FD23C0A80195E0440F551F9A958E
:101CF000E1F744555D4F04E610E020E230E060E497
:101D000088E70E942012892B09F06DC00E94DE0D29
:101D1000E301C095D0958091F5019091F601C8231B
:101D2000D923D093F601C093F5015DC080E2E0EDC8
:101D3000F1E0DF011D928A95E9F785E0000F111FA0
:101D40008A95E1F7A5E7B1E041E751E09924939442
:101D50002D91EA018991AE01B801680F711D64559A
:101D60007D4F30E020533E4FF90197E07F01E21AAA
:101D7000F30AA92C01C0AA0CEA94EAF77B01B12C62
:101D8000E70189917E018A21892E8B18D82DD77081
:101D9000CD2E0D2E000CDD08C82F01C0CC0FDA951A
:101DA000EAF7D194C194D108D7E0CD22DD2401C057
:101DB0008695CA94EAF78C2BD0808D298083B394C2
:101DC00088E0B812DDCF915031969F3F79F6C1E09F
:101DD000A937BC0709F0BCCF04E610E020E230E0F0
:101DE00040ED51E08CCFDF91CF911F910F91FF908B
:101DF000EF90DF90CF90BF90AF909F908F907F90AB
:101E00006F9008958091F4019091F301882389F0F7
:101E1000992369F062E070E082EF93E00E94400D48
:101E2000892B19F08091F30108951092F30190919C
:101E3000F30181E08927089508950F931F938091FE
:101E4000F401882329F160E080E00E94C70D0E9420
:101E50001C0F0E94040E8091F3018823C9F00E9498
:101E600083200091AC041091AD042091AE04309118
:101E7000AF04DC01CB01801B910BA20BB30B8F3F96
:101E80009F4FAF4FBF4720F41F910F910C94020F4B
:101E90001F910F9108950F931F93CF93DF93C42F3A
:101EA000D22FFC0182818823C9F04093F9010E945E
:101EB00077209093F8018093F70180E28C0F8830AF
:101EC00008F057C0C77081E001C0880FCA95EAF7D3
:101ED000DF91CF911F910F910C94EF158091F90133
:101EE000481330C08091F7019091F8010E948F2033
:101EF0008436910538F510E21D0FCD17B9F080E258
:101F00008C0F883040F4C77081E001C0880FCA95FB
:101F1000EAF70E94F615183028F581E09D2F97709A
:101F200001C0880F9A95EAF70E94EF15802F0E9452
:101F3000DC151830F0F4D77081E001C0880FDA9515
:101F4000EAF70AC080E28C0F883098F4C77081E00D
:101F500001C0880FCA95EAF7DF91CF911F910F91C9
:101F60000C94F615802FDF91CF911F910F910C9457
:101F7000DC15DF91CF911F910F9108950F939C0174
:101F8000CB01243F4CE5340731F188F4293DFCE5D1
:101F90003F07D9F02A3D4CE5340779F1283D3C450F
:101FA000A9F506E221EE41EE68ED7CE52BC0263F67
:101FB000FCE53F07E1F0A8F0273F3C4539F507E293
:101FC00025EE46EE67EF7CE51DC007E225EE45EE07
:101FD00069ED7CE517C006E221EE40EE64EF7CE59A
:101FE00011C007E225EE44EE65EF7CE50BC006E28A
:101FF00021EE42EE66EF7CE505C008E221E045EE09
:102000006AED7CE50E944B0F80E008C0FC018281F4
:10201000882319F01092F90101C081E00F91089511
:10202000CF93DF93EC01FB018281882309F41FC168
:10203000C230FCE5DF0708F41BC1C6319CE5D907B7
:1020400038F09E012B5F3C452930310508F010C166
:102050000E94061F9093B7048093B604C031ECE54C
:10206000DE0709F4C3C008F041C0C8308CE5D807CA
:1020700009F49AC0F0F4C430ECE5DE0709F487C037
:1020800068F4C2308CE5D80709F477C0C330DC456A
:1020900009F0E3C08091B604826076C0C630ECE5FA
:1020A000DE0709F46EC008F07BC08091B60488603A
:1020B0006BC0CC308CE5D80709F485C068F4CA3011
:1020C000ECE5DE0709F474C008F079C00E947018CE
:1020D0008091B604806858C0CE308CE5D80709F4EA
:1020E00076C008F07FC08091B6048BC0CC3FECE591
:1020F000DE0709F44FC018F5C3318CE5D80709F4A1
:102100007DC078F4C131ECE5DE0709F473C0C2315B
:10211000DC4509F0A2C00E9470188091B6048F7748
:1021200033C0C5318CE5D80709F472C008F486C005
:10213000CB3FDC4509F091C08091B7043EC0C1158A
:10214000FDE5DF0709F45FC058F4CE3F9CE5D907F1
:1021500009F444C008F43FC08091B70482602DC0E8
:10216000C230FDE5DF0709F475C008F45DC0C33077
:10217000DD4509F072C080E06EC08091B6048160D8
:1021800003C08091B60480618093B60466C08091DC
:10219000B60411C08091B70482608093B7045DC01B
:1021A0008091B6048062F0CF8091B6048064ECCF59
:1021B0008091B60488608460E7CF8160EECF809123
:1021C000B6048E7FE1CF8091B6048D7FDDCF809104
:1021D000B604877FD9CF8091B70418C08091B70427
:1021E0008D7FDBCF8091B6048F7ECECF8091B604F9
:1021F0008F7DCACF8091B6048F7BC6CF8091B60405
:10220000877F8B7FC1CF8091B7048D7F8E7FC5CFB5
:102210008091B60482FB222720F991E0922790FB5F
:1022200082F990FB83F9B0CF8091B704982F9095F5
:1022300091708E7F892B90FB81F9AFCF0E9470182F
:102240008091B60487FB222720F991E0922790FB2A
:1022500087F99ACF81E00E949C1F8091B6049091EB
:10226000B7040E94171F0E94701880E001C081E02F
:10227000DF91CF910895CF93DF9386319C4541F54F
:10228000EB010E943C1E982F8A812091120130910F
:102290001301882379F09A7A81E009F480E0809331
:1022A000FA01911102C069E201C065E3C9010E940F
:1022B000E31F0AC08091FA01811102C069E201C0E6
:1022C00065E3C9010E94E51F0E948A1E80E001C0EB
:1022D00081E0DF91CF9108951092B9008CE0809356
:1022E000B8000895EF92FF920F931F93CF93DF935F
:1022F000182FEB011092BC0084EA8093BC000E946E
:1023000077207C018091BC0087FD0EC0CF3F8FEF0E
:10231000D807C1F30E9477208E199F098C179D075B
:1023200088F38EEF9FEF2EC08091B900887F8830B0
:1023300041F08091B900887F803119F08FEF9FEFD5
:1023400021C01093BB0084E88093BC000E947720DA
:102350008C018091BC0087FD0CC0CF3F8FEFD80768
:10236000C1F30E947720801B910B8C179D0788F387
:10237000D8CF8091B900887F883111F08034F1F690
:1023800080E090E0DF91CF911F910F91FF90EF904F
:1023900008950F931F93CF93DF93EB018093BB00BE
:1023A00084E88093BC000E9477208C018091BC005F
:1023B00087FD0EC0CF3F8FEFD807C1F30E94772073
:1023C000801B910B8C179D0788F38EEF9FEF0CC03D
:1023D0002091B900287F81E090E0283211F480E05C
:1023E00090E0919581959109DF91CF911F910F9187
:1023F0000895CF92DF92EF92FF920F931F93CF93A6
:10240000DF936B018A017901B9010E947211E60123
:102410000C0D1D1DC017D10761F424E92093BC00E9
:10242000DF91CF911F910F91FF90EF90DF90CF90B0
:10243000089597FDF2CFB70189910E94C911EACFA3
:10244000CF92DF92EF92FF920F931F93CF93DF9380
:10245000C62F6A017901B8010E94721197FD11C05F
:10246000B8018C2F0E94C911E601EC0CFD1CCE15A1
:10247000DF0539F097FD05C0B80189910E94C911A7
:10248000F6CF24E92093BC00DF91CF911F910F91EB
:10249000FF90EF90DF90CF90089584E98093BC0087
:1024A00008958EE14A9B02C08150E1F74A9BFECF1E
:1024B00008955A9880E28A95F1F75A9A0895FC0196
:1024C0002AE02A95F1F790E020E080E031E026173D
:1024D00079F040E14A95F1F7880F4A9B02C081608C
:1024E000932700C0000040E14A95F1F72F5FEFCF3E
:1024F00020E12A95F1F729B100C0000030E13A95BA
:10250000F1F722FB222720F992272081920F908356
:102510000895EF92FF920F931F93CF93DF931F9233
:10252000CDB7DEB719828C017C01E60EF11C0E15C9
:102530001F0559F00E94511268E0CE0101960E94D9
:102540005F12F80181938F01F2CF81E0998191119F
:1025500080E00F90DF91CF911F910F91FF90EF904E
:1025600008959093FD018093FC016093FB01529AC2
:102570005A9A08959093FD018093FC016093FB01AA
:1025800052985A9AEA9AE9E6F0E080818F7C80833B
:102590000895615091E001C0990F6A95EAF720E033
:1025A00031E0992361F0492F482319F05A9A2327E3
:1025B00001C05A9840E24A95F1F79695F2CF22234E
:1025C00011F05A9A01C05A9880E28A95F1F75A9808
:1025D0000895FF920F931F93CF93DF93EC018C012B
:1025E000060F111DC017D10741F0F9900E94591232
:1025F00068E08F2D0E94C912F5CFDF91CF911F9116
:102600000F91FF9008951F920F920FB60F92112411
:102610000F931F932F933F934F935F936F937F93EA
:102620008F939F93AF93BF93EF93FF93CF93DF93DA
:102630001F92CDB7DEB719820E94511267E0CE011A
:1026400001960E945F12382F369536953695932F56
:1026500096959570232F2570920F292F23709695AC
:1026600096958770920F891348C08981811145C062
:102670008091FB01831708F440C080E18A95F1F74F
:102680005A9A529AA2E0AA95F1F700C00091FC0173
:102690001091FD01B8E03B9F000D111D11245A98C7
:1026A000F8016581662321F0868197810E94E912F5
:1026B0000E945912F0E1FA95F1F75A9852985A9AF5
:1026C00080E18A95F1F7D80112966C9112976623F2
:1026D00069F013968D919C9114970E948912D801EC
:1026E000ED91FC91811105C082E004C0D801ED910B
:1026F000FC9188E080830E9451120F90DF91CF916E
:10270000FF91EF91BF91AF919F918F917F916F91C9
:102710005F914F913F912F911F910F910F900FBE9D
:102720000F901F9018950F931F93CF93DF932091D5
:10273000FB0130E0281739070CF471C09C0193E0CD
:10274000220F331F9A95E1F7C091FC01D091FD0152
:10275000C20FD31FF894529A5A9845E04A95F1F760
:102760000000982F969595708570890F982F93701B
:1027700086958695890F8901082B0E94591284E05D
:102780008A95F1F700C067E0802F0E94C91240E1EE
:102790004A95F1F752985A9A4A9902C000C0FCCF64
:1027A00087E090E04A9B0EC0019751F4529A5A9AE2
:1027B000E881F98181E08083789481E090E031C004
:1027C00000C0F0CF6D81662381F08E819F810E94D1
:1027D000891281110AC0529A5A9AE881F98182E0DD
:1027E0008083789482E090E01CC00E94511280E2C5
:1027F0008A95F1F75A98529A40E14A95F1F76A8121
:10280000662321F08B819C810E94E9120E9459125B
:10281000E881F9811082789480E090E002C084E041
:1028200090E0DF91CF911F910F9108959093030253
:10283000809302020895E0910202F0910302309722
:1028400021F00190F081E02D099480E00895E0915D
:102850000202F0910302309721F00280F381E02D13
:102860000994089520910002309101022817390738
:1028700071F09093010280930002E0910202F091C6
:102880000302309721F00680F781E02D0994089526
:102890002091FE013091FF012817390771F09093C4
:1028A000FF018093FE01E0910202F0910302309754
:1028B00021F00084F185E02D0994089585B78068A2
:1028C00085BF85B7806885BF08950C94200808955A
:1028D0000C9467140C9467140C946A140C94671489
:1028E0000C946E140C9467140E945E140E9472146F
:1028F0000C9470140E946E200E94F2060E94A90A95
:1029000080E00E947F0D0E94EB200E9459090C94E8
:102910006C149F92AF92BF92CF92DF92EF92FF9290
:102920000F931F93CF93DF93CDB7DEB72A970FB6E0
:10293000F894DEBF0FBECDBF0E9468140E946714DA
:102940000E946307C82E0E946514811111C08FEF89
:1029500089838A831B820E9477208160782F9D83E0
:102960008C8349815A816B818D810E942E1540C0D4
:1029700085E0A82E82E0B82E00E010E0902E802F97
:102980000E94C606E82EF501D1905F01D82631F4E9
:102990000F5F1F4F0A30110589F7D9CF80918A0246
:1029A00081FD0E94CC0680E0FF24F3949D2D9F21A1
:1029B000D1F08E839F82EF2081E009F480E0888748
:1029C0000E9477208160782F9A8789874E815F8166
:1029D00068858A850E942E15F801EB5FFD4F808186
:1029E000F826F08205C08F5FFF0C8730F9F6D0CF54
:1029F0000E94BA090E941D0FC1100E94DE0D0E94A4
:102A00001B14909104028917B9F00E941B14809343
:102A100004022A960FB6F894DEBF0FBECDBFDF9139
:102A2000CF911F910F91FF90EF90DF90CF90BF90CB
:102A3000AF909F900C94C8042A960FB6F894DEBF0E
:102A40000FBECDBFDF91CF911F910F91FF90EF90FF
:102A5000DF90CF90BF90AF909F900895CF93DF937A
:102A6000CDB7DEB72B970FB6F894DEBF0FBECDBF44
:102A70004F83588769877A878B87DE01119686E0B6
:102A8000FD0111928A95E9F785E0FE0137960190E4
:102A90000D928A95E1F749815A816B817C818D8104
:102AA0009E810E94291B2B960FB6F894DEBF0FBEA5
:102AB000CDBFDF91CF910895FC01808191810E946B
:102AC000FD1D0895CF93882309F448C0C82F8CEFCB
:102AD0008C0F813AD0F46C2F8091120190911301E8
:102AE0000E94AD1F882349F06C2F809112019091B4
:102AF00013010E94E51F0E948A1E6C2F8091120113
:102B0000909113010E94E31F0CC080E28C0F88306B
:102B100058F4C77081E001C0880FCA95EAF70E9497
:102B20003F1ECF910C948A1EEBE5EC0FE33040F48E
:102B3000F0E0E955FE4F808190E0CF910C94321483
:102B4000C85AC73158F4EC2FF0E0EE0FFF1FE758DA
:102B5000FE4F80819181CF910C944814CF910895BC
:102B6000882349F1682F8CEF860F813A38F48091E1
:102B70001201909113010E94E51F0CC080E2860FA4
:102B8000883050F4677081E001C0880F6A95EAF7D9
:102B90000E94451E0C948A1E8BE5860F833020F41C
:102BA00080E090E00C943214685A673120F480E0A1
:102BB00090E00C9448140895CF93C82F0E9462159A
:102BC000C93349F42FEF87EE93E0215080409040C5
:102BD000E1F700C000008C2FCF910C94B015882332
:102BE00021F00E943F1E0C948A1E0895882321F034
:102BF0000E94451E0C948A1E0895CF92DF92EF9298
:102C0000FF920F931F93CF93DF937C01062FC72F63
:102C1000FC01158112951F70D281D1110E945C1E9A
:102C20000E94351E882399F0DD2389F08C2F807F48
:102C3000803421F080E2800F883048F082E00E94EA
:102C4000D41E0E94351E91E0D82ED92601C0D12C69
:102C5000CC2EC2948FE0C8228C2D90E0FC01E75965
:102C6000FF4F0C94302A8C2F807FCF70882311F077
:102C7000C295C07FDD2399F0CC2309F482C180E2A4
:102C8000800F883010F0011104C08C2F0E943F1E6D
:102C900003C08C2F0E944F1E0E948A1E72C1802F7B
:102CA0000E94B015CC2309F491C180E2800F8830D6
:102CB00010F0011104C08C2F0E94451E03C08C2F00
:102CC0000E94551E0E948A1E81C18C2F807FCF706A
:102CD000803211F0C295C07F002319F00130C9F095
:102CE00022C0DD2371F0112341F0113031F40E9434
:102CF0006F1E8C2B0E94771E69C10E946F1E8C2B49
:102D00001DC0112319F0113009F460C10E94801E0A
:102D100025C0DD2321F0163008F058C10EC0153053
:102D200008F054C11BC0DD2361F0112331F0F7011D
:102D3000858180FF26C18F7085838C2F0E94EF15BF
:102D400045C1112359F0093309F02CC1FFEF27EEDB
:102D500083E0F15020408040E1F722C18C2F0E9497
:102D6000F61534C18C2F86958695837019F08130C5
:102D700061F02CC1DD2321F0802F9C2F937002C0C5
:102D800080E090E00E94321429C1DD2321F0802FE1
:102D90009C2F937002C080E090E00E9448141EC1F6
:102DA0008C2F837009F045C0D11114C1402F42957A
:102DB00046954770440F440F602F6F70862F90E048
:102DC000A0E0B0E0042E04C0880F991FAA1FBB1F0B
:102DD0000A94D2F704FF10C00FE010E020E030E0CA
:102DE00004C0000F111F221F331F4A95D2F7009510
:102DF00010952095309503C000E010E09801C6952D
:102E0000C695C370BC01CD01602B712B822B932B17
:102E1000C23049F058F4C13019F00E947A1CDAC06F
:102E20000E94681CD7C00E948C1CD4C00E94661CE3
:102E3000D1C0DD2319F08C2F817001C086958823C5
:102E400009F4C8C0402F429546954770440F440F7F
:102E5000602F6F70862F90E0A0E0B0E0042E04C0D9
:102E6000880F991FAA1FBB1F0A94D2F704FF10C036
:102E70000FE010E020E030E004C0000F111F221F1F
:102E8000331F4A95D2F7009510952095309503C0D1
:102E900000E010E09801C695C695C370BC01CD0155
:102EA000602B712B822B932BC23049F058F4C13028
:102EB00019F00E943F1D8EC00E942D1D8BC00E94E4
:102EC000511D88C00E94A01C85C0CF70DD2339F041
:102ED0008C2F0E94C61C802F0E94EF157BC0802F74
:102EE0000E94F6158C2F0E94E71C74C0023F01F16E
:102EF00028F4003F41F0013FA1F03FC0033FF9F04B
:102F0000043F39F13AC0DD2341F0153008F05EC0CE
:102F10008C2F8F710E940C1D59C0163008F056C0BE
:102F2000F7CFDD2339F08C2F8F710E94C61C4EC065
:102F3000DD23C9F38C2F8F710E94E71C47C0DD236E
:102F400029F08C2F8F710E94B11C40C00E94AC1CD4
:102F50003DC0DD2349F0CF718C2F0E94C61C63E079
:102F60008C2F0E94BF1E32C081E00E94D41E1230FE
:102F700068F182E00E94D41E29C0DD2331F01123C4
:102F800091F2802F0E94621521C0112399F209331A
:102F900049F49FEFE7EEF3E09150E040F040E1F7B5
:102FA00000C00000802F0E94B01510C04C2F4F7041
:102FB000602FC7010E94D1040E94D71B0FC04C2F65
:102FC0004F70602FC7010E94D40408C088EF8C0D99
:102FD000843020F40E941B140E94C804DD20C9F034
:102FE0000E94311E80FD15C0F70112820E942B1E27
:102FF0000E94C61CC7010E942A180E942B1EDF9146
:10300000CF911F910F91FF90EF90DF90CF900C9494
:10301000E71CDF91CF911F910F91FF90EF90DF9010
:10302000CF9008950F931F93CF93DF93EC016881A6
:1030300079818A810E94081E8C010E94631D0E9472
:10304000541CB801CE010E94FD15DF91CF911F9154
:103050000F910895CF93DF93EC01988189812B81A3
:103060003C81232B31F08F3F31F481E09F3F19F4F5
:1030700003C081E001C080E080FD19C0CE010E9444
:10308000770481110CC00E94351E882381F08A814B
:10309000882369F082E0DF91CF910C94D41ECE0199
:1030A0000E941218CE01DF91CF910C943003DF9172
:1030B000CF9108950E945C1E0E946C1E0E948A1E81
:1030C00080E090E00E94321480E090E00C9448147C
:1030D00080911201909113010E94E71F0C945A18DD
:1030E0000E944C1E0C946818E92FE295EF704E2F49
:1030F00050E0FA013297EE30F105B0F4E758FF4F97
:103100000C94302A803F91F018F4883E68F40EC089
:10311000843F51F40BC0883E48F0813F29F406C03B
:1031200093FB882780F9089580E0089581E0089551
:103130000E94FD1D0E9474180895CF93DF9300D064
:1031400000D01F92CDB7DEB70F900F900F900F9069
:103150000F90DF91CF910895CF93DF9300D000D0EF
:1031600000D0CDB7DEB726960FB6F894DEBF0FBEFF
:10317000CDBFDF91CF9108951F93CF93DF93C0917F
:10318000100216E080911102C81799F0D0E01C9F40
:10319000F0011D9FF00D1124EE5EFD4F4081518125
:1031A00062817381848195810E94AC182196C770D9
:1031B000E9CFDF91CF911F91089540914202509144
:1031C00043026091440270914502809146029091C1
:1031D00047020C94AC180F931F93CF93DF93809109
:1031E000470282958F7009F05DC080914402882368
:1031F00009F458C0809110021091110260914202AE
:1032000070914302C0914502D091460291E06F3F18
:1032100009F090E0292F06E0811709F443C02097B8
:1032200021F07F3F21F030E003C031E001C0322FB8
:1032300090E030FD34C0089FF001099FF00D11248B
:10324000DF01AE5EBD4F11963C911197371327C039
:103250003C91361324C012963C91129731111FC035
:1032600013964D915C9114974C1B5D0B44365105A0
:10327000B0F4809147028F70806180934702E95ECD
:10328000FD4F80818F708061808382E492E00E9494
:103290002A18DF91CF911F910F910C94BC180196C1
:1032A0008770BACFDF91CF911F910F9108959F92B0
:1032B000AF92BF92CF92DF92EF92FF920F931F9344
:1032C000CF93DF93CDB7DEB761970FB6F894DEBF2B
:1032D0000FBECDBF8C0185E0F801DE011D96019087
:1032E0000D928A95E1F7F80140815181E280909139
:1032F000420260914302209145023091460221151D
:10330000310531F06F3F31F481E09F3F19F403C084
:1033100081E001C080E0F82FF1709F2E80FD46C152
:10332000F801A380B48082E4C82E82E0D82EF09009
:103330004402F501E21BF30BFF2009F4DFC080918A
:103340004702E436F10508F09BC0282F207F09F0E2
:1033500052C0561313C0491311C0FE2CE1100EC009
:103360008F708061809347020E94DD18C6010E9421
:103370002A1880914702F801858358C1AB2831F0A3
:103380005F3F31F481E04F3F19F403C081E001C099
:1033900080E080FD03C081E08E2502C080E090E0E7
:1033A000F82FF170FF2E80FF1CC080911002209139
:1033B000110236E0821709F417C190E0389FF0013E
:1033C000399FF00D1124EE5EFD4F6181561306C04A
:1033D0006081461303C06281E61203C001968770C4
:1033E000E9CFFE2CEE2009F421C1809147028160D3
:1033F000809347025AC0561306C0491304C0E11017
:1034000002C0F8019FC04D875E878D859E850E9412
:103410009818882379F1EE2069F120914702822FD4
:1034200082958F7090E0029774F0809142029091A3
:10343000430298878F831986BB86AA862C87CE0184
:1034400007960E942A1886E0F801A2E4B2E00190F3
:103450000D928A95E1F70E94EB180E94DD180DC0CD
:10346000561729F14D875E878D859E850E94981895
:1034700081112CC0C8010E942A18FF24F394D6C0E1
:10348000282F207F69F77A2DB98AA88A6E2D89891D
:103490000E949D1882E492E00E942A1886E0F601BC
:1034A00011928A95E9F70E94DD18F12CBFC04913EB
:1034B000D9CFE110D7CFF8018583C8010E942A181F
:1034C00086E0F60111928A95E9F7B0C0EE2091F2FC
:1034D00020914702822F82958F7090E002970CF422
:1034E000B2CF80914202909143029A8389831B82DA
:1034F000BD82AC822E83CE010196A3CFE436F105C6
:1035000008F047C0FE2CEE2009F4B4CF561330C0AB
:1035100049132EC02091470220FD21C0822F8295A1
:103520008F70482F50E041155105C9F0F8012583EF
:103530004F30510541F08F5F982F9295907F822FE9
:103540008F70892B8583C8010E942A1886E0F801B4
:10355000A2E4B2E001900D928A95E1F742C086E0C4
:10356000F801A2E4B2E001900D928A95E1F75EC005
:103570004D875E878D859E850E949818811163CF47
:1035800080914702816080934702C8010E942A18F7
:103590004DC07A2DB98AA88A6E2D89890E949D18FE
:1035A00086E0F60111928A95E9F71BC0EE2009F436
:1035B00061CF4D875E878D859E850E949818F82E75
:1035C000882309F457CF86E0F801A2E4B2E0019025
:1035D0000D928A95E1F782E492E00E945C150E94C8
:1035E000EB180E94DD1822C04D875E878D859E8571
:1035F0000E94FD1D292F22952F70223028F49F70E4
:1036000039F0811105C00BC0243028F49F7049F4B3
:10361000805E883020F0C8010E942A189F2CF92C67
:1036200005C0F8019581907F99F7F9CF8F2D6196AC
:103630000FB6F894DEBF0FBECDBFDF91CF911F91C3
:103640000F91FF90EF90DF90CF90BF90AF909F9041
:1036500008951F93CF93DF93CDB7DEB72C970FB6A6
:10366000F894DEBF0FBECDBF4F83588769877A8736
:103670008B879C87CE0107960E9457198823D1F02B
:103680009F8188852A853B85232B31F08F3F31F43C
:1036900081E09F3F19F403C081E001C080E080FD1C
:1036A00047C04F81588569857A858B859C850E94A6
:1036B000AC183EC086E0FE013796DE0111960190FF
:1036C0000D928A95E1F7FF81E8856A857B85611512
:1036D000710531F0EF3F31F481E0FF3F19F403C091
:1036E00081E001C080E080FD23C02091110230E024
:1036F000C9010196877099274091100250E0841704
:103700009507F1F1F983EA837D836C8396E0929FBC
:10371000D001939FB00D1124AE5EBD4FFE013196D6
:1037200001900D929A95E1F7809311020E94BC18C6
:1037300016E08091100290911102891771F1189F83
:10374000C00111248E5E9D4F0E945719882329F1D4
:10375000E09110021E9FF0011124EE5EFD4F4081AA
:10376000518162817381848195810E94AC1880911E
:10377000100290E001968770992780931002D9CFAC
:103780000E9470181092110210921002E2E4F2E00E
:1037900086E0DF011D928A95E9F72C960FB6F89422
:1037A000DEBF0FBECDBFDF91CF911F910895EF9285
:1037B000FF920F931F93CF93DF938C01892B09F412
:1037C0006CC0F12CEE24E394E8012196F801849179
:1037D000843740F4843008F051C0813081F0823069
:1037E00019F15BC0853709F444C0A8F19CE7980F34
:1037F000903708F052C08F770E94B01541C00E5F1D
:103800001F4FFE01849190E2980F983050F487701A
:10381000FE2D01C0FF0F8A95EAF78F2F0E945F1ED1
:1038200014C00E9462152DC00E5F1F4FFE018491CF
:1038300090E2980F983060F48770FE2D01C0FF0F62
:103840008A95EAF78F2F0E94651E0E948A1E19C072
:103850000E94B01516C00E5F1F4FFE01C491CC230D
:1038600081F08FE99FE00197F1F700C00000C1509F
:10387000F6CF0E5F1F4FFE01F49003C00E94621549
:103880008E018F2D882309F49FCFEFE9FFE0319758
:10389000F1F700C000008150F5CFDF91CF911F916B
:1038A0000F91FF90EF900895089508950C94551C82
:1038B0000C94561C0E94581C6093790270937A02F3
:1038C00080937B0290937C020C945A180C945A1C9F
:1038D0000F931F930091790210917A0220917B023D
:1038E00030917C02602B712B822B932B1F910F91B7
:1038F0000C945A1C0F931F930091790210917A0235
:1039000020917B0230917C026023712382239323D8
:103910001F910F910C945A1C0F931F9300917902E1
:1039200010917A0220917B0230917C0260277127EE
:10393000822793271F910F910C945A1C0C94551CAD
:103940000E949E1C609375027093760280937702AA
:10395000909378020C945A1860E070E0CB010C94BC
:10396000A01C0F931F9341E050E060E070E08A01DB
:103970009B0104C0000F111F221F331F8A95D2F72D
:10398000C901B8011F910F910C94A01C0F931F93B4
:1039900041E050E060E070E004C0440F551F661F36
:1039A000771F8A95D2F78091750290917602A09147
:1039B0007702B09178028A019B01082B192B2A2BE0
:1039C0003B2BC901B8011F910F910C94A01C0F93C0
:1039D0001F9341E050E060E070E004C0440F551FC9
:1039E000661F771F8A95D2F7409550956095709520
:1039F0008091750290917602A0917702B091780241
:103A00008A019B01082319232A233B23C901B801FA
:103A10001F910F910C94A01C0F931F9341E050E055
:103A200060E070E004C0440F551F661F771F8A9541
:103A3000D2F78091750290917602A0917702B091B1
:103A400078028A019B01082719272A273B27C901E9
:103A5000B8011F910F910C94A01C0F931F9300911C
:103A60007502109176022091770230917802602BD6
:103A7000712B822B932B1F910F910C94A01C0F93F1
:103A80001F93009175021091760220917702309178
:103A9000780260237123822393231F910F910C944A
:103AA000A01C0F931F930091750210917602209134
:103AB00077023091780260277127822793271F9120
:103AC0000F910C94A01C089527E0929F800D112463
:103AD000E82FE695E695E695877051E001C0550F11
:103AE0008A95EAF785E0E89FF0011124E85BFD4F35
:103AF00020E030E070E04081CB01022E02C09695BC
:103B000087950A94E2F7817081958427852384271D
:103B100081932F5F3F4F2530310569F7089527E0E6
:103B2000929F800D1124682F669566956695982F53
:103B3000977085E0689FB001112440E050E080E07C
:103B4000FB01E40FF51FE85BFD4F208130E0092EFB
:103B500002C0369527950A94E2F721703327042E88
:103B600001C0220F0A94EAF7822B4F5F5F4F453066
:103B7000510531F70895BF92CF92DF92EF92FF92F5
:103B80000F931F93CF93DF938C01C0907502D09059
:103B90007602E0907702F09078028091790290911D
:103BA0007A02A0917B02B0917C02C82AD92AEA2A23
:103BB000FB2ACFE1D0E0D701C6010C2E04C0B69598
:103BC000A795979587950A94D2F780FD04C0219711
:103BD00090F7B12C07C0BC2EB8018C2F0E94DD04D9
:103BE0000197A9F38B2DDF91CF911F910F91FF903A
:103BF000EF90DF90CF90BF900895CF93DF93EC01CB
:103C00000E94BB1DBE010E94DD04DF91CF9108958B
:103C10001F93CF93DF93EB0190910F02992321F033
:103C2000CB010E94FD1D13C0882349F0CB010E94E7
:103C3000BB1D182F682FCE010E94641D04C0CB014C
:103C40000E948F1D182FBE01812F0E94DD04DF917D
:103C5000CF911F91089580917D02859585958595D9
:103C6000089580917D028770089590917D029770EC
:103C700081E009F480E0089580918902089590918F
:103C80008902892B809389020895809590918902F9
:103C90008923809389020895109289020895909152
:103CA0008802892B809388020895809590918802DC
:103CB0008923809388020895109288020895909134
:103CC0008702892B809387020895809590918702BF
:103CD0008923809387020895109287020895809126
:103CE0007E02089508950C94721E0C94731E909198
:103CF0007E02981721F080937E020C94751E089521
:103D000080917E02882329F010927E0280E00C943C
:103D1000751E0895E0911201F091130180918902BE
:103D20008083E0911201F0911301908180918802CB
:103D3000892B8083E0911201F09113019081809191
:103D40008702892B808380917E02882381F0E09115
:103D50001201F09113019081892B808380911201CF
:103D6000909113010E94A11F81110E94801E8091D9
:103D70001201909113010C9427140C94721E98E078
:103D8000899F90011124262B20937D020E94C61C3E
:103D900080917D028595859585950C94BD1E109228
:103DA0007D0280E00C94BD1E20917D0280958223CF
:103DB00080937D02982F977079F430E0482F082E79
:103DC000000C550B2417350739F085958595859599
:103DD0000E94E71C0C94CF1E08956FEF7FEF80E0E8
:103DE00090E00C948B2A80E090E00E94672A21E00A
:103DF0008C3E9E4F09F020E0822F089582E090E0F3
:103E00000C945F2A83E090E00C945F2ACF9384E0C7
:103E100090E00E945F2AC82F81E290E00E945F2A12
:103E20002C2F30E0A901582BCA01CF910895CF93D0
:103E3000C92F682F84E090E00E946D2A6C2F81E2E8
:103E400090E0CF910C946D2AAB01BC018FE090E023
:103E50000C947F2AAB01BC0183E190E00C947F2A93
:103E600060E070E0CB010C942A1F60E070E0CB01B1
:103E70000E94241F0C94301F6CEE7EEF80E090E0D7
:103E80000E948B2A60E082E090E00E946D2A60E050
:103E900083E090E00E946D2A1092790210927A02DB
:103EA00010927B0210927C0260E084E090E00E941D
:103EB0006D2A60E081E290E00E946D2A60E085E07A
:103EC00090E00E946D2A60E086E090E00E946D2AFA
:103ED0006FEF87E090E00E946D2A40E050E0BA0169
:103EE00088E090E00E947F2A60E08DE090E00E94F0
:103EF0006D2A40E050E0BA0188E190E00E947F2AFC
:103F000060E087E190E00E946D2A40E050E0BA0155
:103F10008CE190E00E947F2A60E080E290E00E94C5
:103F20006D2A40E050E0BA0188E190E00E947F2ACB
:103F30000C94351F0C943C1F682F8EE090E00C947D
:103F40006D2AFC01329697E080E0915029F0219192
:103F50002223D9F38F5FF9CF0895662349F0FC013E
:103F6000329608962191621729F0E817F907D1F7E0
:103F700080E0089581E008959C01FC0132969FEF56
:103F800080E04191461789F09F3F19F4411101C02B
:103F9000982F8F5F8630A9F79F3F39F0F901E90F1D
:103FA000F11D97FDFA956283089508959C012A5F9B
:103FB0003F4FFC014281461301C0128201968217D5
:103FC0009307B9F708950C94BC1F0C94D61F029662
:103FD00026E0FC0111922A95E9F7089508950C94C2
:103FE000EE1F0C94EE1FCF930E94F11F0E946307F7
:103FF0000E94EF1FC0E08C2F0E94C606811104C0F2
:10400000CF5FCA30C1F701C081E0CF9108950C9411
:10401000EE1F0C9407200E9409208091BC0484307C
:1040200049F110928B0220E488E190E00FB6F894F9
:10403000A895809360000FBE2093600080E00E94EE
:10404000C8040E94092083B7817F846083BF83B73F
:10405000816083BF7894889583B78E7F83BF0FB6C6
:10406000F894A89580916000886180936000109218
:1040700060000FBE08950C94EE1F0E9470180E94FD
:104080001B140E94C8040C943B201F920F920FB681
:104090000F9211248F939F93AF93BF9380918B02C4
:1040A000811113C08091B2049091B304A091B40423
:1040B000B091B5044196A11DB11D8093B2049093B7
:1040C000B304A093B404B093B504BF91AF919F9192
:1040D0008F910F900FBE0F901F90189582E084BDB6
:1040E00093E095BD9AEF97BD80936E0008952FB72A
:1040F000F8948091B2049091B304A091B404B0916B
:10410000B5042FBF08952FB7F8946091B204709151
:10411000B3048091B4049091B5042FBF08959C011D
:104120004FB7F8948091B2049091B304A091B40475
:10413000B091B5044FBF821B930B089578941F92E2
:104140000F920FB60F9211248F939F93AF93BF934B
:104150008091B2049091B304A091B404B091B504DD
:104160000196A11DB11D8093B2049093B304A09356
:10417000B404B093B504BF91AF919F918F910F900C
:104180000FBE0F901F90189587E797E7909301084F
:10419000809300089AE088E10FB6F894A895809380
:1041A00060000FBE90936000FFCF0C94960A0E94AF
:1041B00063078FE39CE90197F1F700C000000E94BC
:1041C000630780E00E94C60680FF04C00E94D520DD
:1041D0000C94C42008950E94F31E811102C00E9415
:1041E0009A1F0E94FE1E80938A020E94061F9093CF
:1041F000B7048093B6040E94021F682F70E080E02D
:1042000090E00E94661C6091750270917602809128
:104210007702909178020C949E1C809194020895EC
:104220000895CF93DF9300D01F92CDB7DEB7909162
:10423000BC04943011F589837B836A839093E900F1
:104240008FEF9091E800815095FD06C095ED9A950D
:10425000F1F700008111F5CF8091E80085FF0DC0D6
:1042600040E050E063E070E0CE0101960E946923D7
:104270008091E8008E778093E8000F900F900F9068
:10428000DF91CF910895BC0184E00C941121BC0111
:1042900083E00C941121CF93DF9321E02093E90078
:1042A0002FEF3091E800215035FD06C035ED3A95ED
:1042B000F1F700002111F5CF2091E80025FF14C08F
:1042C000EC0140E050E068E070E00E9469238091DA
:1042D000E8008E778093E80088E0FE01ACE8B2E069
:1042E00001900D928A95E1F7DF91CF910895CF93D8
:1042F000603219F52091BC042430F9F4C091E90032
:10430000CF703091EC00232F217030FD20E8C22BBC
:1043100022E02093E9002091E80020FF0BC040E05C
:1043200050E060E270E00E9469238091E8008E779F
:104330008093E800CF70C093E900CF9108958091F9
:10434000BB04811109C00E9445250E94A2258091CD
:10435000E20084608093E20008951092BB04089507
:10436000089508950C943D2042E061EC81E00E94A4
:10437000BE2442E261EC84E00E94BE2442E261EC91
:1043800082E00E94BE2442E260EC83E00C94BE24F2
:104390008091BE04833009F462C030F4813071F042
:1043A000823009F49BC008958A3009F487C08B30AD
:1043B00009F46DC0893009F0A9C020C08091BD0406
:1043C000813A09F0A3C08091E800877F8093E800DC
:1043D0008091C1049091C204892B21F468E08CE89B
:1043E00092E003C060E080E090E070E00E94FF2374
:1043F0008091E8008B778093E80008958091BD0458
:10440000813209F083C08091C1049091C204009769
:1044100019F0029709F07AC08091E800877F8093B5
:10442000E8008091E80082FD05C08091BC04811104
:10443000F8CF6CC02091F3008091F20090E0922BB5
:10444000029729F48091F1008B7F813021F48091D3
:10445000F100809394028091E8008B7753C08091A3
:10446000BD04813A09F052C08091C1049091C20408
:10447000892B09F04BC08091E800877F8093E8008A
:104480008091E80080FFFCCF80911E0136C08091B2
:10449000BD048132D9F58091C1049091C204892B69
:1044A000A9F58091E800877F8093E8000E94F324BB
:1044B0008091BF0480931E010C9470188091BD04FC
:1044C000813221F58091E800877F8093E8000E9487
:1044D000F3248091C0048093950208958091BD04D7
:1044E000813AA1F48091E800877F8093E800809171
:1044F000E80080FFFCCF809195028093F1008091CD
:10450000E8008E778093E8000C94F32408951F93BD
:10451000CF93DF93CDB7DEB7A0970FB6F894DEBF89
:104520000FBECDBF84B7877F84BF0FB6F894A89520
:1045300080916000886180936000109260000FBEDF
:1045400090E080E80FB6F89480936100909361004A
:104550000FBE0E9474140E9445250E94A2258091DE
:10456000E20084608093E20078940E9437280E94E1
:104570007A1484E191E00E94161413E08091BC0447
:10458000853069F40E940B208091BA048823B1F32E
:104590000E94F31F882391F30E945323EFCF0E94C0
:1045A00089148091BC04843009F51093E90080914E
:1045B000E80082FF1BC08091E80085FF0AC040E050
:1045C00050E060E270E0CE0101960E94B42391E0D9
:1045D00001C090E08091E8008B778093E8009923F8
:1045E00029F060E2CE0101960E94F80A0E94681448
:1045F0000E946714C3CF0C94FD22292F3327233048
:104600003105C9F060F42130310581F022303105E7
:1046100009F041C08BE590E022E434E040C0213253
:104620003105E1F02232310531F135C082E190E00F
:104630002DE934E034C099278130910549F028F004
:10464000029749F5E6E1F4E005C0EEE3F4E002C0CC
:10465000E6E2F4E0849190E09F0121C063307105AF
:10466000D0F4660F771FFB01ED54FE4F208131819E
:1046700089E090E014C06330710568F4FB01EE0F2F
:10468000FF1FE355FE4F20813181FB01E655FE4FB0
:10469000808190E004C080E090E020E030E0FA010A
:1046A00031832083089580E189BD82E189BD09B409
:1046B00000FEFDCF8091D8008F7D8093D80080913F
:1046C000E00082608093E0008091E00081FDFCCFFB
:1046D0000895CF92DF92EF92FF920F931F93CF93A3
:1046E000DF93EC018B017A010E941225811133C006
:1046F000E114F10439F0F70180819181081B190B55
:10470000C80FD91FC12CD12C0115110519F18091A9
:10471000E80085FD16C08091E8008E778093E80060
:10472000E114F10449F0F70180819181C80ED91E8E
:10473000D182C08285E00FC00E941225882321F318
:104740000AC089918093F10001501109FFEFCF1A3F
:10475000DF0ADACF80E0DF91CF911F910F91FF90B8
:10476000EF90DF90CF900895CF92DF92EF92FF927B
:104770000F931F93CF93DF93EC018B017A010E947B
:104780001225811133C0E114F10439F0F701808161
:104790009181081B190BC80FD91FC12CD12C0115F1
:1047A000110519F18091E80085FD16C08091E8009F
:1047B0008B778093E800E114F10449F0F7018081E0
:1047C0009181C80ED91ED182C08285E00FC00E949F
:1047D0001225882321F30AC08091F10089930150AA
:1047E0001109FFEFCF1ADF0ADACF80E0DF91CF9116
:1047F0001F910F91FF90EF90DF90CF90089520913F
:10480000C3043091C4042617370748F061157105B9
:1048100039F42091E8002E772093E80001C0B90117
:10482000FC0120E06115710579F18091BC048823B9
:10483000F1F18530F1F18091E80083FD3CC0809179
:10484000E80082FD2EC08091E80080FFEBCF209130
:10485000F3008091F20090E0922B6115710551F008
:104860008830910538F421912093F100615071094D
:104870000196F3CF21E0089709F020E08091E8004D
:104880008E778093E800CECF2111CFCF0AC08091E0
:10489000BC04882361F0853061F08091E80083FDDD
:1048A0000AC08091E80082FFF2CF80E0089582E0A4
:1048B000089583E0089581E008952091C304309124
:1048C000C4042617370748F06115710539F42091A3
:1048D000E8002E772093E80001C0B901FC0120E038
:1048E0006115710591F18091BC04882309F440C0E1
:1048F000853009F43FC08091E80083FD3DC0809180
:10490000E80082FD2FC08091E80080FFE9CF209170
:10491000F3008091F20090E0922B6115710559F03F
:104920008830910540F424912093F1003196615034
:1049300071090196F2CF21E0089709F020E08091FB
:10494000E8008E778093E800CBCF2111CCCF0AC04E
:104950008091BC04882361F0853061F08091E8008B
:1049600083FD0AC08091E80082FFF2CF80E00895C5
:1049700082E0089583E0089581E00895982F9730AC
:1049800068F59093E900981739F07091EC00209148
:10499000ED005091F00003C0242F762F50E021FD50
:1049A00002C09F5FECCF3091EB003E7F3093EB0075
:1049B0003091ED003D7F3093ED003091EB003160A0
:1049C0003093EB007093EC002093ED005093F000D7
:1049D0002091EE0027FDE5CF80E008958F70809351
:1049E000E90081E008958091BD0487FF11C08091A6
:1049F000E80082FD05C08091BC048111F8CF11C090
:104A00008091E8008B770BC08091BC04882349F02B
:104A10008091E80080FFF8CF8091E8008E77809346
:104A2000E80008952091E4003091E50095E640917A
:104A3000EC00842F817040FF23C08091E80080FD4E
:104A40001DC08091BC04882399F0853099F0809135
:104A5000EB0085FD11C04091E4005091E500241762
:104A6000350729F3915011F09A01E1CF84E00895C0
:104A700082E0089583E0089581E0089580E008953C
:104A80004091E80042FFDDCF08950E94B3250E94C7
:104A9000BB25E0EEF0E0808181608083E8EDF0E00E
:104AA00080818F77808319BCA7EDB0E08C918E7FD9
:104AB0008C9380818F7E80831092BB0408950F9326
:104AC0001F93CF93DF930E94B3250E94BB25C8EDAF
:104AD000D0E088818F778883888180688883888107
:104AE0008F7D888319BC1092BC041092B804109278
:104AF000BA041092B90400EE10E0F80180818B7FB7
:104B0000808388818160888342E060E080E00E9449
:104B1000BE24E1EEF0E080818E7F8083E2EEF0E063
:104B2000808181608083808188608083F8018081BA
:104B30008E7F8083888180618883DF91CF911F91F0
:104B40000F910895E8EDF0E080818F7E8083E7ED9E
:104B5000F0E080818160808384E082BF81E0809387
:104B6000BB040C945F25E8EDF0E080818E7F8083AC
:104B70001092E20008951092DA001092E100089578
:104B80001F920F920FB60F9211242F933F934F93C2
:104B90005F936F937F938F939F93AF93BF93EF93A5
:104BA000FF938091E10082FF0BC08091E20082FFC1
:104BB00007C08091E1008B7F8093E1000E9436283E
:104BC0008091DA0080FF1FC08091D80080FF1BC059
:104BD0008091DA008E7F8093DA008091D90080FF87
:104BE0000DC080E189BD82E189BD09B400FEFDCF21
:104BF00081E08093BC040E949F2105C019BC1092E3
:104C0000BC040E94AD218091E10080FF19C0809119
:104C1000E20080FF15C08091E2008E7F8093E20069
:104C20008091E20080618093E2008091D8008062F0
:104C30008093D80019BC85E08093BC040E94B12108
:104C40008091E10084FF30C08091E20084FF2CC09D
:104C500080E189BD82E189BD09B400FEFDCF80916C
:104C6000D8008F7D8093D8008091E1008F7E809363
:104C7000E1008091E2008F7E8093E2008091E2006B
:104C800081608093E2008091B804882311F084E071
:104C900007C08091E30087FD02C081E001C083E08E
:104CA0008093BC040E94B2218091E10083FF29C05F
:104CB0008091E20083FF25C08091E100877F80938F
:104CC000E10082E08093BC041092B8048091E1007E
:104CD0008E7F8093E1008091E2008E7F8093E200DE
:104CE0008091E20080618093E20042E060E080E039
:104CF0000E94BE248091F00088608093F0000E94A2
:104D0000B021FF91EF91BF91AF919F918F917F91D2
:104D10006F915F914F913F912F910F900FBE0F9028
:104D20001F9018951F920F920FB60F9211242F9378
:104D30003F934F935F936F937F938F939F93AF9323
:104D4000BF93CF93DF93EF93FF93C091E900CF70B0
:104D50008091EC00D82FD17080FDD0E81092E9004E
:104D60008091F000877F8093F00078940E94D6268F
:104D70001092E9008091F00088608093F000CD2BC4
:104D8000CF70C093E900FF91EF91DF91CF91BF9178
:104D9000AF919F918F917F916F915F914F913F91D3
:104DA0002F910F900FBE0F901F9018951F93CF93C8
:104DB000DF93CDB7DEB7AA970FB6F894DEBF0FBE6C
:104DC000CDBFEDEBF4E08091F100819324E0E53C70
:104DD000F207C9F70E94C8218091E80083FF2EC125
:104DE0008091BD049091BE04492F50E04A30510596
:104DF00008F024C1FA01E957FF4F0C94302A80389B
:104E000021F0823809F01AC108C08091B90490914C
:104E1000BA04992389F082600FC08091C1048F7019
:104E2000873008F00BC18093E9008091EB0085FB8F
:104E3000882780F91092E9009091E800977F90937D
:104E4000E8008093F1001092F100D1C0282F2D7F4F
:104E500009F0F4C0882319F0823061F0EFC080912E
:104E6000BF04813009F0EAC0933009F080E08093FC
:104E7000BA042EC08091BF0481112AC08091C10460
:104E80008F702FEF280F263008F0D8C08093E900EC
:104E90002091EB0020FF1CC0933021F48091EB00A7
:104EA000806214C09091EB0090619093EB0021E040
:104EB00030E0A90102C0440F551F8A95E2F74093E4
:104EC000EA001092EA008091EB0088608093EB008A
:104ED0001092E9008091E800877F8093E8000E94AB
:104EE000F324ACC08111AAC01091BF041F77809138
:104EF000E3008078812B8093E3008091E800877F36
:104F00008093E8000E94F3248091E80080FFFCCFAA
:104F10008091E30080688093E300111102C082E079
:104F200001C083E08093BC0489C08058823008F0BF
:104F300085C08091BF049091C0048C3D53E09507DB
:104F400079F583E08A838AE289834FB7F894DE019A
:104F5000139620E03EE051E2E32FF0E0509357003B
:104F6000E49120FF03C0E295EF703F5FEF708E2F5A
:104F700090E0EA3010F0C79601C0C0968D939D93E3
:104F80002F5F243149F74FBF8091E800877F8093DE
:104F9000E8006AE270E0CE0101960E94FF2316C08D
:104FA0006091C1047091C204AE014F5F5F4F0E94D7
:104FB000FB22BC01892B09F441C09091E800977F46
:104FC0009093E80089819A810E945D248091E80095
:104FD0008B778093E80032C0803881F58091E800BB
:104FE000877F8093E8008091B8048093F1008091DE
:104FF000E8008E7772CF811121C08091BF0490911B
:10500000C00499270297D4F48091E800877F8093A9
:10501000E8008091BF048093B8040E94F32480913B
:10502000B804811106C08091E30087FD02C081E0D1
:1050300001C084E08093BC040E94B4218091E80008
:1050400083FF0AC08091E800877F8093E800809109
:10505000EB0080628093EB00AA960FB6F894DEBF57
:105060000FBECDBFDF91CF911F9108950895CF93CB
:105070008091BC048823A1F0C091E900CF70909189
:10508000EC00892F817090FD80E8C82B1092E90018
:105090008091E80083FD0E94D626CF70C093E9007E
:1050A000CF9108955058BB27AA270E946A280C94D4
:1050B00042290E94342938F00E943B2920F039F41B
:1050C0009F3F19F426F40C9431290EF4E095E7FB88
:1050D0000C942B29E92F0E94532958F3BA17620721
:1050E00073078407950720F079F4A6F50C947529C9
:1050F0000EF4E0950B2EBA2FA02D0B01B9019001F3
:105100000C01CA01A0011124FF27591B99F0593F36
:1051100050F4503E68F11A16F040A22F232F342F7E
:105120004427585FF3CF469537952795A795F040CC
:105130005395C9F77EF41F16BA0B620B730B840BE1
:10514000BAF09150A1F0FF0FBB1F661F771F881F99
:10515000C2F70EC0BA0F621F731F841F48F48795F1
:1051600077956795B795F7959E3F08F0B0CF9395E3
:10517000880F08F09927EE0F9795879508950E945C
:105180005B2988F09F5798F0B92F9927B751B0F055
:10519000E1F0660F771F881F991F1AF0BA95C9F7BB
:1051A00014C0B13091F00E947529B1E008950C94BB
:1051B0007529672F782F8827B85F39F0B93FCCF36E
:1051C000869577956795B395D9F73EF49095809538
:1051D000709561957F4F8F4F9F4F0895E89409C058
:1051E00097FB3EF490958095709561957F4F8F4F1A
:1051F0009F4F9923A9F0F92F96E9BB279395F69530
:10520000879577956795B795F111F8CFFAF4BB0FAD
:1052100011F460FF1BC06F5F7F4F8F4F9F4F16C011
:10522000882311F096E911C0772321F09EE8872F9B
:10523000762F05C0662371F096E8862F70E060E057
:105240002AF09A95660F771F881FDAF7880F9695D0
:10525000879597F9089597F99F6780E870E060E077
:1052600008959FEF80EC089500240A9416161706FF
:1052700018060906089500240A9412161306140647
:1052800005060895092E0394000C11F4882352F0AA
:10529000BB0F40F4BF2B11F460FF04C06F5F7F4F62
:1052A0008F4F9F4F089557FD9058440F551F59F049
:1052B0005F3F71F04795880F97FB991F61F09F3F03
:1052C00079F087950895121613061406551FF2CF2C
:1052D0004695F1DF08C0161617061806991FF1CF7C
:1052E00086957105610508940895E894BB276627A3
:1052F0007727CB0197F908950E948F290C944229B2
:105300000E94342938F00E943B2920F0952311F0A7
:105310000C942B290C94312911240C9476290E9489
:10532000532970F3959FC1F3950F50E0551F629F6D
:10533000F001729FBB27F00DB11D639FAA27F00DEE
:10534000B11DAA1F649F6627B00DA11D661F829F15
:105350002227B00DA11D621F739FB00DA11D621FFA
:10536000839FA00D611D221F749F3327A00D611D17
:10537000231F849F600D211D822F762F6A2F1124F9
:105380009F5750409AF0F1F088234AF0EE0FFF1F2C
:10539000BB1F661F771F881F91505040A9F79E3F83
:1053A000510580F00C942B290C9476295F3FE4F38F
:1053B000983ED4F3869577956795B795F795E795D9
:1053C0009F5FC1F7FE2B880F911D9695879597F9E2
:1053D0000895AA1BBB1B51E107C0AA1FBB1FA6173C
:1053E000B70710F0A61BB70B881F991F5A95A9F78E
:1053F00080959095BC01CD01089597FB072E16F47A
:10540000009407D077FD09D00E94E92907FC05D058
:105410003EF4909581959F4F0895709561957F4FCB
:105420000895052E97FB1EF400940E94282A57FD2C
:1054300007D00E943D2A07FC03D04EF40C94282A82
:1054400050954095309521953F4F4F4F5F4F0895B0
:1054500090958095709561957F4F8F4F9F4F0895E0
:10546000EE0FFF1F0590F491E02D09946927962710
:1054700069277827872778270895A1E21A2EAA1B83
:10548000BB1BFD010DC0AA1FBB1FEE1FFF1FA217F4
:10549000B307E407F50720F0A21BB30BE40BF50BF1
:1054A000661F771F881F991F1A9469F7609570957A
:1054B000809590959B01AC01BD01CF010895F999AC
:1054C000FECF92BD81BDF89A992780B50895A8E1D5
:1054D000B0E042E050E00C94932A262FF999FECFD9
:1054E00092BD81BDF89A019700B4021639F01FBA37
:1054F00020BD0FB6F894FA9AF99A0FBE0895039654
:10550000272F0E946E2A0E946D2A252F0E946E2A44
:10551000242F0C946E2A0196272F0E946E2A0C9439
:105520006D2ADC01CB01FC01F999FECF06C0F2BD6A
:10553000E1BDF89A319600B40D9241505040B8F751
:065540000895F894FFCF6E
:1055460001BF0101C00106C101F5F40021007F225F
:1055560000037F020D214B2110214721432101E247
:1055660000E900EA00B500B600B700CD008301CC23
:10557600008A0192019401210223022402250226B7
:105586000227022A02B300B4006F007000818283F2
:105596009436323331F7F66697C63435000000008C
:1055A6000000FF0100010000FFFF0000010001FFF5
:1055B600000008101818100800E200E900EA00B51B
:1055C60000B600B700CD008301CC008A0192019499
:1055D600012102230224022502260227022A02B3FF
:1055E60000B4006F0070008182834022320305AF51
:0A55F60004D10454046D048D040078
:00000001FF
